:020000040800F2
:1000000000200020093F0008F9340008FB340008F4
:1000100000000000000000000000000000000000E0
:10002000000000000000000000000000FD34000897
:100030000000000000000000FF3400080135000847
:10004000593F000800000000593F0008593F0008D0
:10005000593F0008593F0008593F0008593F000820
:10006000000000000D350008593F0008593F000806
:10007000593F0008593F0008593F000800000000A0
:10008000593F000800000000000000001D35000876
:1000900000000000593F0008593F0008593F000880
:1000A000593F0008593F0008593F0008593F0008D0
:0800B000593F000800000000A8
:1000B80010B5064C2378002B07D1054B002B02D036
:1000C800044800E000BF0123237010BD1800002081
:1000D80000000000E4630008044B10B5002B03D0B7
:1000E8000349044800E000BF10BDC04600000000FE
:1000F8001C000020E4630008002243088B4274D3EC
:1001080003098B425FD3030A8B4244D3030B8B4210
:1001180028D3030C8B420DD3FF22090212BA030C19
:100128008B4202D31212090265D0030B8B4219D3FA
:1001380000E0090AC30B8B4201D3CB03C01A52411A
:10014800830B8B4201D38B03C01A5241430B8B4262
:1001580001D34B03C01A5241030B8B4201D30B034B
:10016800C01A5241C30A8B4201D3CB02C01A524172
:10017800830A8B4201D38B02C01A5241430A8B4235
:1001880001D34B02C01A5241030A8B4201D30B021E
:10019800C01A5241CDD2C3098B4201D3CB01C01A38
:1001A800524183098B4201D38B01C01A5241430942
:1001B8008B4201D34B01C01A524103098B4201D330
:1001C8000B01C01A5241C3088B4201D3CB00C01A9D
:1001D800524183088B4201D38B00C01A5241430815
:1001E8008B4201D34B00C01A5241411A00D201463A
:1001F800524110467047FFE701B5002000F006F8AD
:1002080002BDC0460029F7D076E770477047C04660
:100218008446100062468C461900634600E0C046DA
:100228001FB501F053FC002801D40021C8421FBDAE
:1002380010B501F097FB4042013010BD10B501F038
:1002480045FC002801DB002010BD012010BDC04680
:1002580010B501F03BFC002801DD002010BD012095
:1002680010BDC04610B501F0C1FB002801DC00201C
:1002780010BD012010BDC04610B501F0B7FB002825
:1002880001DA002010BD012010BDC04684460800D8
:100298006146FFE71FB500F095FA002801D4002158
:1002A800C8421FBD10B500F01DFA4042013010BD14
:1002B80010B500F087FA002801DB002010BD0120EE
:1002C80010BDC04610B500F07DFA002801DD002001
:1002D80010BD012010BDC04610B500F02BFA002853
:1002E80001DC002010BD012010BDC04610B500F093
:1002F80021FA002801DA002010BD012010BDC046F7
:10030800F8B54B025A0A94464A00C90FCE464746EA
:100318008946450046022D0E120E80B59909770AC6
:10032800C40FB609AB1A4C4520D0002B0CDD002AAF
:1003380034D100292AD05A1E012B00D18FE0FF2B7F
:1003480000D1CDE013002FE0002B60D0531B002D0F
:1003580000D0EEE0002E00D13EE15C1E012B00D162
:100368006BE1FF2B00D1B9E02300E7E0002B00DCB4
:10037800A4E0002A69D0FF2D00D1B1E08022D20488
:1003880011431B2B00DCE9E02B000536F708FF2B97
:1003980000D1A5E07A02520AD8B230E0FF2D00D190
:1003A8009EE08022D204114301201B2B08DC0800A8
:1003B8002022D840D31A99400B005A1E9341184363
:1003C800361A730100D471E0B601B709380002F09B
:1003D800D3FB3B000538834085424DDDB44E2D1AD2
:1003E8001E405A0768D00F221340042B64D00436ED
:1003F800730161D5681CFE2D54D1FF200022C00571
:100408001043E4072043C0BCB946B046F8BDFE22FD
:100418009046681C0200404610426BD1002D00D067
:10042800DDE0002E00D102E10029B3D08022771A46
:10043800D204174200D136E14C468E1B61D0012010
:10044800164230D10023F708A4E700299ED05A1E8F
:10045800012B00D1CAE0FF2B42D0130091E7711A9B
:100468004B0100D4D1E08F01BF09380002F084FBB2
:100478003B000538834001252022401B0130121A19
:100488001E009340C6405A1E93411E4339D073073D
:1004980000D11BE10F2300253340042BA7D10120F5
:1004A80072017CD5C0B2B201520AA8E7730703D023
:1004B8000F233340042B9AD12B0067E7002B23D05E
:1004C800531B002D7BD1002E00D186E05D1E012B31
:1004D80000D18BE0FF2B02D02B0075E04C4667461D
:1004E800002F00D189E78022D2033A435202FF202D
:1004F800520A84E7771A7B016BD4002F00D065E796
:100508000024002000227AE7FE226B1C1A4249D1FF
:10051800002D00D09FE0002E00D1BAE0002900D1C4
:10052800CFE07218530100D4CDE092010120520AA5
:1005380065E7FF2AD2D08020C004064301201B2B88
:1005480008DC30002024D840E31A9E4033005C1EAB
:10055800A34118434C4615000E1A32E70800202222
:10056800D840D31A99400B005A1E93410343F618FA
:1005780073019BD50135FF2D00D13EE701234D497D
:10058800720833400A401A431600530704D00F2359
:100598001340042B00D02AE7730100D52AE72B006B
:1005A800F708F7E6FF2B00D127E7711849084A0733
:1005B8002FD00F220A40042A2BD00E1DE6E6FF2A70
:1005C8008DD08020C00406431B2B24DD13004E1D54
:1005D800DCE64C468F1BF9E64C460E00D6E6002EAC
:1005E80049D1002968D067464C467CE7701843011A
:1005F80074D5304940080140430709D00F23034010
:10060800042B05D002230E1DC0E60123CF08C1E646
:100618000223CF08BEE620253000D840EB1A9E40C2
:1006280033005D1EAB41034315005E18A0E70029A7
:1006380000D165E74C466746ACE68F1B7B012ED59B
:10064800BF01BF09380002F097FA3B000538834024
:100658004C46013510E7002E00D140E7002900D1B3
:1006680041E78023DB039F4200D23CE79C4500D34F
:1006780039E7674637E7002900D134E78023DB03F1
:100688009F4200D22FE79C4500D32CE74C46674693
:1006980029E7002900D134E70023CF087AE64C4641
:1006A8000123FF0876E6002F00D129E7FF0871E64D
:1006B800FFFFFFFBFFFFFF7D80220024FF20D20306
:1006C8009DE6002366E60023D70863E60120720151
:1006D80000D5E7E631000023CF085BE60123C70811
:1006E80058E6C04670B542004E024C0045026D0AFD
:1006F800120EC30F760A240EC90FFF2A10D0FF2C42
:100708000CD00120A2420AD1B54208D18B420FD0A9
:10071800002A04D12800431E984100E0012070BD42
:100728000120FF2CFBD13543F9D14B401800F6E7E7
:100738000020F4E730B5420044024D02C30F4800E0
:10074800640A120E6D0A000EC90FFF2A18D0FF287E
:100758000AD0002A1ED100280AD1002D29D0002C49
:100768002DD14800013830BD002D25D1002A01D1F6
:10077800002CF6D08B4219D001205B421843F2E7D7
:10078800002C19D1FF28F7D1002D15D100208B425C
:10079800F2D1E8E70028EFD08B42EDD18242EBDCC2
:1007A80004DBAC42E8D80020AC42DCD25800013867
:1007B800D9E7002CD7D0DFE702204042D3E78B42AD
:1007C800DAD1EEE730B5420044024D02C30F4800CB
:1007D800640A120E6D0A000EC90FFF2A17D0FF28EF
:1007E8000AD0002A1BD100280AD1002D1DD0002CC8
:1007F8002DD14800013811E0002D0ED1002A01D179
:10080800002CF6D08B420CD15800013806E0002CA1
:1008180003D1FF2805D1002D15D0022030BD0028B6
:1008280006D101205B421843F8E7002CF6D0F8E720
:100838008B42F6D18242F4DCE6DBAC42F1D80020F0
:10084800AC42EBD2E0E700208B42EAD1E6E78B42EC
:10085800E7D1F2E7F0B54F464646D6464400C0B564
:1008680046020F1C760A240EC50F002C00D1DAE0D0
:10087800FF2C74D08023F600DB041E430023994626
:100888009A467F3C7B025B0A98467B001B0EFF0F53
:10089800002B74D0FF2B00D18EE042468021D2007D
:1008A800C90411437F3B2A00E4184B467A40884626
:1008B800D2B20A2B75DC4B460020022B0FDD4946CD
:1008C80001238B40A621C9000B4269D190218900E0
:1008D8000B4200D000E18821194200D0F5E04146E2
:1008E8000904090C43460800350C36041B0C360C69
:1008F800704369435E435D437618030C9B19994224
:1009080003D9802149028C46654400041904000C6F
:1009180009188E01701E86411B0C890E5B190E4347
:100928009B011E431B016CD423007F33002B00DC8A
:10093800B1E0150071070BD00F20210030400428CA
:1009480006D00436320103D56E4B1E400B008033AF
:10095800FE2B00DDBDE0B201520ADBB248E0002EFA
:1009680000D092E008239946063B9A467B025B0A30
:1009780098467B00FF241B0EFF0F002B8AD14246AE
:10098800002A64D149460132114389460A2908DC04
:100998007D400120EAB2022991DC1500002227E0FF
:1009A80015005346022B00D193E0032B1AD0012BDC
:1009B8002CD1002300221BE04346FF34002B55D0E6
:1009C80003214B460B4319000A2B00DC92E00F2B46
:1009D80000D08CE08022D203164203D04346134253
:1009E80000D17DE08022D20332435202520AFF2313
:1009F800D805ED0710432843E0BCBA46B146A846DF
:100A0800F0BD0123150071081E400E4323008033FA
:100A1800611C002B41DD720794D00F223240042A5A
:100A280000D08EE78EE7002E05D104239946033BBC
:100A380000249A4626E7300002F09EF87624431FE9
:100A48009E400023644299469A46241A1AE7404673
:100A580002F092F84B46241A763C0A2BA1DC434656
:100A6800053883407D409846EAB224E74A46023377
:100A780013432A007A40D2B20A2B92DC4946150069
:100A8800002926D09946022019E70C239946093BEC
:100A9800FF249A46F6E6150021000122D31A1B2BE3
:100AA80000DD86E79E3132008E40DA40731E9E419B
:100AB8003243530704D00F231340042B00D00432D1
:100AC800530110D50123002292E73D004646824695
:100AD80067E7FF2300228BE780220025D20386E701
:100AE8003D001A4383E792010023520A80E73D0044
:100AF800464677E72A0001237A408B400320D2B28A
:100B0800E9E6C046FFFFFFF770B5002812D0C3170B
:100B1800C5185D40C40F280002F02EF89E231B1A4A
:100B2800962B0FDC082838D0083885406D026D0AEE
:100B3800D8B202E0002400200025C0052843E407BD
:100B4800204370BD992B14DC421F95402A0015499B
:100B5800114055071CD00F252A40042A18D004310B
:100B6800CA08490115D59F235202181A550AC0B25E
:100B7800E3E705222900121AD14002001B329540F2
:100B88002A00551EAA410A43064911405507E2D1D9
:100B9800CA085202550AD8B2CFE76D026D0A8E30E4
:100BA800CBE7C046FFFFFFFBF0B54F464646D646AB
:100BB800C0B582B0009001910E034C00CD0F710AB0
:100BC800009E5F00760F0E43009900920193C900C2
:100BD800894619037B0D9846019B490ADB0F9C4601
:100BE800009B009A5B0F0B434146640DD200611ACB
:100BF800654500D1A6E0002972DD4746002F00D1E7
:100C0800DDE0CC4FBC4200D19AE10127382917DC3E
:100C180080273F043B431F2900DDDDE12027781AA8
:100C28001F008740BA461700CF4084463800574611
:100C3800074360468240CB40501E8241F61A174354
:100C48004B46DF1BB94580414042361A330200D477
:100C5800FFE07602760A002E00D13CE1300001F078
:100C68008BFF0300083B20213800CA1AD0409E4061
:100C780002009F4032439C4200DDA6E1181B013070
:100C8800091A3E008F40C6407B1E9F4113008B40CF
:100C980037431F43C2403B0016000024134300D1D2
:100CA800DFE17B0700D132E30F233A003B40042BFE
:100CB80004D03A1DBA42BF417F42F619330200D42C
:100CC80023E39C4B01349C4200D1B4E09A4B640569
:100CD8001E40640D7707D20876021743360BACE046
:100CE800002900D17EE04146091B002C00D060E1BC
:100CF80034004846044300D1C9E14C1E012900D103
:100D08002EE28C4DA94200D124E20127382C11DCB7
:100D180021001F2900DD0BE2202437004846641A11
:100D2800A740C84007434846A040CE40441EA041C3
:100D38009B1B0743D71BBA42924152426546444621
:100D48009E1A83E7002900DC9CE04746002F67D104
:100D58001F00174300D1E4E0481E012900D19BE1A0
:100D6800744FB94200D1EBE001270100382811DCAB
:100D78001F2900DDC7E12027781A1F008446874015
:100D88001000C840074360468240CB40501E824155
:100D9800F61817434F444F458041404236183302F6
:100DA80057D5644B01349C4245D00121624B7A08E7
:100DB8001E4039400A43F7071743760871E71F00BA
:100DC800174300D1ADE04F1EBC46012900D182E196
:100DD800584FB94200D190E161460127382900DD1A
:100DE8002EE718E7554F611C394200D0D0E031009A
:100DF80048461F0001431743002C00D03DE100295D
:100E080000D1BCE1002F00D0BFE14B460021D8083B
:100E180077070743F00806034C05360B640D0CE012
:100E2800444FBC4200D18BE001273829B2DC80272F
:100E38003F043B439CE70026002724053443ED0785
:100E48002C433800210002B0E0BCBA46B146A8469F
:100E5800F0BD7B0704D00F233B40042B00D028E7CC
:100E6800F808344B77070743F0089C4200D04AE261
:100E78003B00034359D080263603064336032D4CE6
:100E8800360BDAE7002961D04146091B002C00D156
:100E9800B9E0284CA04500D1A5E10127382913DC89
:100EA8008024240426431F2900DDC8E120243700BC
:100EB8004846641AA740C84007434846A040CE4069
:100EC800441EA0419B190743BF18974292415242C2
:100ED8004446D61863E7380001F04EFE0300183385
:100EE8001F2B00DCBFE63A00083882409C4200DD38
:100EF80083E01B1B581C1F2800DCB4E117001F3BB4
:100F0800DF40202805D040231B1A9A40531E9A41DF
:100F180017430024002F0AD07B0700D0C4E6260020
:100F28009EE74B460C00D8089BE70027014C00269B
:100F380083E7C046FF070000FFFF7FFFFE070000B2
:100F48004B467707D8080743F00891E7CD4F611C57
:100F580039426BD1310048460143002C00D04BE1A7
:100F68001F001743002900D181E1002F00D14CE771
:100F78004A444A458041F61840423618330200D5A3
:100F8800B0E117009146374300D03EE7002654E70A
:100F98004946891A8846C145BF41F11A7F42C91B93
:100FA8000F0261D447460F4300D1BDE00E0047460B
:100FB80051E6B54CA04500D100E10127382900DDF4
:100FC800B8E6802424042643A3E6B04EE41A16406B
:100FD8007B0700D03FE743E70F001800203FF840A9
:100FE8008446202903D04027791A8B401A43531E80
:100FF8009A41634617001F4322E6A448E11A1040AD
:101008004707C00807E734004846044300D1FAE020
:101018004C1E012900D1D7E09B4FB94200D1E2E034
:101028000127382C00DD4FE721003CE7964CA14210
:1010380000D1DDE04A444A458041F318404218187F
:10104800C707520817434608520705D00F220C005D
:101058003A40042A00D02CE67607FF0837430009F7
:10106800D9E600270026E8E64946571ABA429241CF
:101078009E1B52426546B61AEDE5002900D0C6E02F
:10108800002F67D1802600257F4C3603D5E66546BC
:101098000C001E00D008E4E64A444A458041F31893
:1010A800404218181100030200D496E0774B490813
:1010B8001840C3070B434408490700D129E10F2210
:1010C8001A40042A00D1EAE01F1D9F42B641764229
:1010D80036190224C4E649468F1AB9458041F61AE2
:1010E8004042361A330206D47307FF0801211F4312
:1010F800F00890E665460124ABE54B467707D8082B
:101108000743F008B4E60F001800203FF840844673
:10111800202903D04027791A8B401A43531E9A413D
:10112800634617001F4335E600250024002684E6A1
:101138000C003500203CE540202905D04024611AE8
:101148008E404946314389464846411E884107003A
:101158002F43EFE5D2085F0765461743D80887E6AF
:10116800171ABA4292419E1B5242B61A3302C1D490
:101178007307FF08654601211F43F0084BE6002F5F
:101188007BD065461E0091463FE6811A8846C145D8
:10119800A441F11A6442091B80242404214277D017
:1011A800101A8242924107009E1B5242B61A3743D8
:1011B80000D0A0E06546002400263EE65F07D2087E
:1011C80065461743D80853E6811891429241F018B2
:1011D80052428018030200D568E74707C9080F4341
:1011E800C008012117E6D2085F071743D8083FE671
:1011F8000C000026002720E6002956D15F07D208F8
:101208001743D80834E60C001E00D00829E6C108A8
:1012180070070143F008002F62D080242403204285
:1012280007D0DE08264204D165463000D1085B07A6
:1012380019434F0FC900C9087F070F4318E60C0070
:101248003000203CE0408446202905D04024611A23
:101258008E404946314389464846411E8841614689
:1012680007000F4330E620210027091A0EE51E006B
:10127800002F00D022E5002458E70025002400268E
:10128800DBE5C046FE070000FF070000FFFF7FFF09
:1012980047460F4300D147E70E00C146B5E5DF08D2
:1012A8006407022127430009B5E51900C00877073C
:1012B80007431143F008002900D1D9E5802109032B
:1012C800084207D0DC080C4204D1D2085B071A4355
:1012D800170020007B0FFF00FF085B071F43C7E5CF
:1012E8000F00C5E5124BD20833405F075B020124AB
:1012F80017431E0BA1E5264212D00D4B654602008E
:1013080001241E40E6E4210085E51700A8E53A001F
:10131800D4E4DB0864071C432700022100097AE5AE
:10132800C0087707074365460021F00873E5C04603
:10133800FFFF7FFFF0B5DE46454657464E46E0B50F
:1013480087B0009201930B031B0B9B46CA0F4B00FF
:10135800040080465B0D029200D198E07C4A9342DB
:1013680037D05946420FC9000A4380210904114366
:10137800C2009046774A894692469A440023002440
:101388000393009E019F3B031B0B9B467B00300091
:101398005B0DFD0F002B59D06D4A934248D059463A
:1013A800720FC9000A438021090411438B46694919
:1013B800F2008C4651466344CB1A9A460021029E9D
:1013C8006E40F6B20F2C00D9CEE0634BA4001B5937
:1013D8009F465A460243914600D090E09A4602231F
:1013E800904608240393CCE7CB464246029D0399D6
:1013F800022900D1DEE1032900D18DE0012900D0C6
:1014080079E12E0000220023002490461B05234387
:10141800F60733434046190007B0F0BCBB46B24656
:10142800A946A046F0BD002200249046484BEDE7AF
:101438005A46009B1A43494B9C46E244002A59D11C
:1014480002231C43002302219B46B8E75A46009B0F
:101458001A4349D05B46002B00D19CE1584601F065
:101468008BFB020003000B3A1D27009EBA1A1900D5
:101478005846D64008398840320002439346009ABD
:101488008A40374953448A4600219A4497E75B4685
:101498000343994621D05B46002B00D169E15846A9
:1014A80001F06AFB0B235B429C46020084446646BB
:1014B8001D239B1B260011005846DE400839884032
:1014C80033000343994623008B409846254B00245C
:1014D8009B1A9A460023039353E7002398469A469B
:1014E8000133042403934CE701231C430023012107
:1014F8009B4664E70323320003211C435FE79A46B7
:101508000323D9460C2403933BE700238024984601
:1015180000260F4B240379E780245B4624031C43F1
:1015280024032E0090460A4B240B6FE780244B4679
:101538002403234202D05B462342F0D080244B464A
:1015480024031C432403029E014B240B5EE7C04680
:10155800FF07000001FCFFFFFC63000801F8FFFF24
:10156800F30300000DFCFFFFCB4500D2F8E000D1EB
:10157800F3E001235B429C46444648460025E2448A
:101588005B46170E1B021F43190C3B0412020097FF
:101598001F0C914602910397FEF734FE02007A432E
:1015A8000B04210C804619438A4209D9009F012364
:1015B800BC465B4261449C46E0448F4200D85CE1F3
:1015C800881A0299FEF71EFE039A2404424309046E
:1015D800240C03000C43A24206D90099013B8C4617
:1015E8006444A14200D842E1A01A424612041A43B8
:1015F80093464B4659461B0C1F0004930B0449465F
:101608000904090C0C001B0C5C43120C7B43884634
:1016180051437A43270CBC465B186344994203D96B
:10162800802149028C466244190C24041B04240CB2
:101638008A181C19904202D316D1A54214D25B46CF
:10164800009F013B4D4405934D459B41BC465B4281
:101658006344C018874200D302E1824200D929E1DD
:1016680000D124E1059B9B462C1BA542AD41009B64
:10167800801A6D42401B834200D10FE10299FEF7A8
:10168800C1FD039A0B044243210C050019438A4209
:1016980000D9CBE0881A0299FEF7B4FD039A240416
:1016A80042430904240C03000C43A24200D9CAE0B7
:1016B8004146A41A2A041A43049F13041B0C5943D5
:1016C80040467B439C46150C68430B0C844463449A
:1016D8007D43984203D98020400284466544180C13
:1016E80009041B04090C40195B18844227D323D032
:1016F800012335001A43944B5344002B60DD5107F6
:1017080000D086E02E00D1085A46D20106D55A46A6
:101718008E4B1A4080239346DB0053448C4A9342F5
:1017280000DD80E65A4652070A4390465A465B0552
:101738005402240B5B0D69E63500002BDBD0009DBD
:10174800511EAC466444AC4200D29EE0844200D2B2
:10175800E1E000D1EEE00A00CAE7424500D908E717
:101768004B46DC07580843465B081C434346DD07E5
:1017780006E701F001FA15239C46844402006346FB
:1017880020321C2B00DC92E623000838834099465F
:10179800002398469AE601F0EFF90200030015329B
:1017A80020331C2A00DC5FE60099083881400022BB
:1017B8008B4666E600222E0000249046654B25E6FF
:1017C8002E000121C91A382900DD1BE61F297EDCFD
:1017D8006148140050445B4682408340CC40501E10
:1017E800824123431A435B46CB40510709D00F215E
:1017F8001140042905D0111D9142924152429B1873
:101808000A00190200D49BE000220123002490461C
:10181800FCE50F211140042900D173E7111D914205
:10182800924152422E00C90893446DE7009B013D46
:101838009C4661448B4200D92CE78A4200D829E7AC
:10184800851E614426E70099013B8C466444A14209
:1018580000D92DE7A24200D82AE7831E644427E76F
:10186800874200D0FEE6A94500D9FBE6F5E6A2428C
:1018780000D8B9E6831E6444B6E68A4200D89FE6DB
:10188800BC46831E984661449AE60A00844200D00A
:101898002EE74B4500D02BE735002CE72A4B2F4A83
:1018A8005344924543DB0122002193442CE7AC4288
:1018B80000D8D7E602235B429C4600994D444D452B
:1018C8009B41E3448C465B426344C018CCE61F202E
:1018D8004042C31A5846D840202904D05946204BC4
:1018E800534499400A43531E9A410723190002435F
:1018F80000241140134209D008331340042B1DD093
:10190800131D934289411A0049424907D2080A43E4
:10191800904600237AE54946009F4D004D45894190
:10192800BC4649426144A946023A6418AEE701221E
:10193800524246E79945EED30A00AAE70021E5E7B7
:1019480059075B021C0BE1E7FF030000FFFFFFFEE6
:10195800FE070000FF0700001E04000002FCFFFF56
:101968003E040000F0B55746DE464E464546E0B513
:101978000D000400E80F83460903D80F090B8246BF
:1019880019488C461F0369005E00490D3F0B760D10
:10199800814218D086420FD00120B1420DD1BC45FA
:1019A8000BD1944209D1D3451CD0002905D16046FA
:1019B8002043431E984100E00120F0BCBB46B246DC
:1019C800A946A046F0BD01208E42F6D161463943B2
:1019D8000F0017432743F0D15B465246981A431E1F
:1019E8009841EAE70020E8E7FF070000F0B557460E
:1019F8004E464546DE46E0B50D000E034900490D4A
:101A08008A46DF0FE90FBC4683B02F4F040080469B
:101A18000191580019039146360B090B400DBA4540
:101A28001DD0B8420DD05746002F2AD13443002884
:101A380024D10A4336D0002C41D1634658000138DE
:101A480015E0114338D15346002B01D12643F4D079
:101A5800019B634507D1019B5800013807E02643E5
:101A68002AD1504521D00120019B5F42384303B061
:101A7800F0BCBB46B246A946A046F0BD002CDCD05F
:101A8800E6E70028EFD0019B6345ECD18245EADC0C
:101A9800E1DB8E42E7D8DED1C845E4D80020C8454E
:101AA800E5D2D8E7002CE2D0DDE7114304D1019B51
:101AB8006345D8D10020DAE702204042D7E7019BEE
:101AC8006345E6D0CFE7C046FF070000F0B55746AC
:101AD8004E464546DE46E0B50D000E034900490D69
:101AE8008A46DF0FE90FBC4683B02E4F04008046BC
:101AF8000191580019039146360B090B400DBA4560
:101B08001ED0B8420DD05746002F27D134430028A5
:101B180033D10A4334D0002C40D1634658000138F1
:101B280015E0114312D15346002B01D12643F4D0BE
:101B3800019B63451DD00120019B5F42384306E0AD
:101B4800264303D15045F6D111431CD0022003B0DF
:101B5800F0BCBB46B246A946A046F0BD0028EAD074
:101B6800019B6345E7D18245E5DC02DB8E42E2D882
:101B78000ED0019B58000138E9E7002CCDD0D7E7FB
:101B8800002CE4D0D7E7019B00206345DFD0D2E7E3
:101B9800C845D0D80020C845D9D2EAE7019B63459B
:101BA800E4D0C8E7FF070000F0B557464E46DE46CA
:101BB8004546E0B51F000B031B0B16009A46CA0FDB
:101BC8004B000400914685B05B0D00D1CFE1CD4AB2
:101BD800934255D05146420FC9000A438021090457
:101BE8001143C2009046C84A8A4693469B44002344
:101BF800002502933C037B00FA0F0196240B5B0D32
:101C0800009200D188E1BF4A934200D192E0BE4AD7
:101C1800944663449B440A2D42DCE400730F23433B
:101C28008024494624041C43F3000193009B0020B0
:101C38005940CBB20393022D00DC94E00123AB4062
:101C48001D00A6232A00DB001A401D4200D029E20D
:101C580090239B001D4200D14DE200238024994629
:101C68002403A84B10004A461B052343D2071343FD
:101C7800190005B0F0BCBB46B246A946A046F0BD67
:101C880052460243904600D0ACE19B46022392465E
:101C980008250293AEE7009BA2469946019B984609
:101CA800029B022B00D1CAE1032B00D192E1012B48
:101CB80010D1002300240022D4E701227B083A40F7
:101CC80013435246D2071343984653465B089A4635
:101CD800039B99465B46581C8023DB005B44002B22
:101CE80000DCB1E1424652070BD00F2241460A40C0
:101CF800042A06D04246111D414592418846524267
:101D080092445246D20106D55246804B1A4080234F
:101D18009246DB00C3187E4A934200DD8FE14246BB
:101D2800D108524652070A4351465B054C02240B20
:101D38005B0D97E7734B26439C46E344002E00D186
:101D48006FE1032349461D43009B5940CBB20393DF
:101D58000A2D00DD33E10123AB401D00032302936C
:101D680088222A4297D1424643461204120C160092
:101D780001981D0C030C0004000C4643B4461E00D9
:101D88006E430096160007005E436146B0466F43F7
:101D98000E0CB8444644B74205D98021490288460A
:101DA800009F4744009761460904090C370C360424
:101DB8008C463100614401911100260C2404240C46
:101DC80061438C462100694389466146090C88466F
:101DD80072434A4442447543914503D980214902DC
:101DE80088464544110C884661460904090C8C460E
:101DF80012046244B91802915146090C8C465146A6
:101E08000F043F0C3900414345448846614641432D
:101E18008A4641466046090C894658437B435344E9
:101E28004B449A4503D98021490289464844190CF4
:101E3800894641460904090C8846390061431B0458
:101E48004344884661464C4371438C464146774338
:101E58000E0C3F19F6194844B44203D980214902AF
:101E68008946CC440299009F894631044F448946EB
:101E78004146974292410C04240C4C44FF185242AC
:101E88006419A1189F429B41884682465B42994645
:101E980090459241AC42A441C244D144524264426A
:101EA800144399459B41824592415B4252421343F8
:101EB8004A46360CA419E31863445B02D20D1A4350
:101EC800019992467A020A43501E8241FF0D174338
:101ED8004A4652021743B846DB0100D5EDE60D4BE2
:101EE800039A5B449146002B00DCACE03A005207B1
:101EF80000D110E70F2258463A40042A00D0F9E6EC
:101F080009E7C046FF07000001FCFFFFFFFFFFFED7
:101F1800FE070000FF030000220032436FD0002CB0
:101F280000D1C2E0200000F027FE020003000B3AB7
:101F38001D20821A30001900D04008398C40020058
:101F4800224334008C405946CB1A86498B469B4421
:101F58000A2D00DDA4E64946009B01945940CBB206
:101F6800140000200393022D00DD67E6FBE65346CC
:101F7800034398463CD05346002B00D1A3E050467B
:101F880000F0FAFD0B235B429C46020084441100DA
:101F98005046083988401D23804660461B1A200099
:101FA800D8400300404603439A4623008B40984696
:101FB8006C4B00259B1A9B46002302931AE60F2DB3
:101FC80000D0C9E0802352461B031A4202D01C42AB
:101FD80000D192E08024534624031C432403424644
:101FE800240B3EE69B46032380460C25029301E61C
:101FF80000239A469B46013304250293FAE5012102
:102008000D430A2D00DD4BE6494600984140C9B210
:102018000391022D00DC96E00023002401200193A7
:102028000CE649460223009A2B435140CAB2039258
:102038000A2B00DD34E6002D57D1039B9946002476
:102048000022494B0EE658460121C91A382900DDFD
:102058002FE61F2956DD1F2254465242D31ADC4070
:10206800202907D0414B42469C4653466044834052
:102078001A43904642460721531E9A410B002243B9
:1020880013400024114209D00F231340042B5DD0C4
:10209800111D91429B410A005B425B07D2081A431B
:1020A8000023DFE5039B9946FAE5019800F064FDFB
:1020B80002000300153220331C2A00DC38E7019A9D
:1020C800083882403FE700F057FD15239C468444BA
:1020D8000200634620321C2B00DC58E70023984698
:1020E8002300083883409A4662E71D000023002435
:1020F80002200193A2E5029032E61C43009B019A5C
:102108009946AEE51A4B5246C31840469A40C84015
:102118000243404698400300581E834154461A43E0
:10212800CC40530709D00F231340042B05D0131DAF
:10213800934292415242A4181A00230208D501235F
:10214800002400228EE5894600248BE50023A5E7BC
:1021580063076402240BA1E7009BA2469946019BF2
:10216800984637E70DFCFFFFFF0700003E0400001C
:102178001E040000F0B557464E464546DE46E0B51B
:1021880083B0009001910C034D00CE0F610A009CB2
:102198005F00640F0C43009900920193C800190373
:1021A8007B0D9946019BCC4FDB0F9C464B0A00994F
:1021B8008046490F1943009B8B46DA0092466D0D05
:1021C800B94500D1BFE00123614659404B468C46D2
:1021D800EB1A8E4275D0002B00DCA3E24946002999
:1021E80000D1CEE0BD4200D100E20127382B19DC36
:1021F800802759463F0439438B461F2B00DDFAE1FF
:102208002027F91A8C4659466746B9400F00110035
:10221800D9400F4361468A40511E8A415946D940E8
:102228001743641AC71BB84280414042241A23024C
:1022380000D440E16402640A002C00D154E120007B
:1022480000F09AFC0300083B20213800CA1AD0404D
:102258009C4002009F4022439D4200DDA6E1581B9E
:102268000130091A3C008F40C4407B1E9F41130077
:102278008B4027431F43C2403B00140000251343F3
:1022880000D1F7E17B0700D177E30F2338003B400B
:10229800042B04D0381DB842BF417F42E419230201
:1022A80000D468E38C4B01359D4200D1F4E08B4BA0
:1022B8006D051C406D0D6707C00864020743240BB9
:1022C800ECE0002B00DC29E34946002900D0D6E0E9
:1022D8005946114300D12EE1591E012B00D1E6E1E8
:1022E800BB4200D182E101270B00382914DC1F2BE7
:1022F80000DD3CE22027F91A8C4659466746B9406A
:102308000F001100D9400F4361468A40511E8A418F
:102318005946D940174364183F18874280414042C4
:102328002418230200D4C6E06B4B01359D4200D12E
:10233800B2E00121694B7A081C4039400A43E7079B
:10234800174364089EE7664B11438A46EB18002939
:1023580028D066452CD0002B5BD0002D00D12CE175
:102368005B4666465F07D2081743DD083B002B43F0
:1023780000D1E2E0802424032C432403564D240B8F
:102388008CE05946114300D1D5E0591E012B00D1EC
:10239800B9E1BB4200D1B1E101270B00382900DDCA
:1023A80040E72AE76146012779408C466645D2D145
:1023B800002B00D1C5E0002D00D055E14B4625008B
:1023C800054300D112E2591E8C46012B00D149E287
:1023D800414DAB4200D18FE20127382911DC634619
:1023E8001F2B00DD5BE26146202327005B1A0500F6
:1023F80098409F40CD40431E9841CC402F4307430F
:10240800A344BF189742924152425A4414004D4681
:1024180087E7344F6B1C3B4200D0B6E05946230097
:1024280011430F000343002D00D026E1002B00D1FB
:10243800C0E1002900D1A1E0831A98465B464045D7
:10244800AD41E31A6D425B1B80252D042B4200D160
:102458004BE15B46101A824292411C1B0700012681
:1024680063465242A41A27431E40002F00D142E17E
:102478002C4200D16DE2194B01251C401BE7BD42DF
:1024880000D13BE10127382B00DD45E7802759467D
:102498003F0439438B462AE7002400272D052543AE
:1024A800F60735433800290003B0F0BCBB46B246F6
:1024B800A946A046F0BD7B0704D00F233B40042B60
:1024C80000D0E7E62B00F808034A67070743E5084A
:1024D800934200D14AE7A5E0FF070000FFFF7FFF16
:1024E80001F8FFFFFE070000380000F045FB03007D
:1024F80018331F2B00DCA7E63A00083882409D42BB
:1025080000DD8AE05B1B581C1F2800DCD8E117009F
:102518001F3BDF40202805D040231B1A9A40531E3A
:102528009A4117430025002F00D1E5E07B0700D032
:10253800ABE62C00C6E7C008C6E700270024D14D4B
:10254800ACE7D14F6B1C3B4271D123000343002DF4
:1025580000D04EE15746002B00D1B5E1002F0DD039
:102568008318834280415C4440422418220200D5EB
:10257800C8E11F009846274300D1BCE043466707DF
:10258800DB081F43E50800234CE0831A98465B46A6
:102598004045BF41E31A7F42DB1B1F027CD44746FC
:1025A8001F4300D1A6E01C00474645E6B74CED1A8C
:1025B80014407B0700D080E784E74B46250005439D
:1025C80066D05F1E012B00D1FCE0AE4DAB4200D1BE
:1025D8005EE16646382F00DCB4E00120171ABA42E3
:1025E80092415B4652424D469C1A20E66707C00856
:1025F8000743E508BAE61F005946203FF9400F0097
:10260800202B05D04021CB1A594699400A439246BF
:1026180053465A1E93411F4304E6EB1A9B4D15403F
:102628006F07ED082C035D05240B6D0D36E7954DFE
:10263800AB4200D1D6E08218210082428041594441
:1026480040420818C707520817434408520700D4E5
:1026580085E10F221D003A40042A00D01AE6FF083F
:10266800640727430509DDE75B46D2085F07174380
:10267800DD087BE60027002410E7002B00D0D6E019
:10268800002900D02FE1802400267E4D240305E791
:1026980066465C46D00817E75B46171ABA4292416D
:1026A8001C1B012663465242A41A1E40C4E5831827
:1026B800834280415C44404225182A0200D4DAE073
:1026C800724A5B081540EA071A4369085B0700D499
:1026D8004AE10F231340042B00D1FCE0171D974259
:1026E800A441644202256418ECE647461C001F43D7
:1026F80000D043E7002600250024CFE6C00867077E
:102708000743E50832E6871A5B46B8428041E41A77
:102718004042241A230228D46307FF081F43E50810
:1027280001237FE7002B00D173E64B465F1B3B007C
:10273800002D00D142E7382F00DDECE080230E00A9
:102748001B041C431F2F25DC20252300ED1B010043
:10275800A840AB40F940451EA8410B43FC40184334
:102768005B461B1B9B4639E76646012562E51F0051
:102778005946203FF9408C46202B05D04027594622
:10278800FB1A99400A43924657467B1E9F4163466F
:102798001F43C1E53B002500203BDD40202F04D02E
:1027A8004023DB1B9C40204380464046431E984103
:1027B800284313E700299DD0012663465C469046CE
:1027C8001E40DBE6171A5B46BA4292411C1B524276
:1027D800A41A2302C8D46307FF081F4366460123CF
:1027E800E5081FE71D000024002757E65C46D008CF
:1027F8006AE6002B00D137E75346C008670707434E
:10280800E508002B00D1B1E580231B031D4208D049
:102818005946C808184204D1D20849070A43170084
:1028280005007B0FFF00FF085B071F439EE5C008FC
:1028380063071843E508002953D080231B031D4272
:102848000AD05946CC081C4206D101266346250009
:10285800D008490708431E40470FC000C0087F073B
:10286800074383E58318934292415C445242A5187A
:102878002A0200D524E76F07DB081F43ED08012370
:10288800D0E6C046FF070000FE070000FFFF7FFFFD
:102898005B46D2085F0766461743DD0866E52500F4
:1028A800203BDD406346202B05D0402361465B1A60
:1028B8009C402043804647467B1E9F412F43A0E50E
:1028C80020210027091AD2E4002F00D113E75C4623
:1028D80017000025F6E5D708490702230F432D09FD
:1028E800A0E6070042E55B4601265F07DD08634670
:1028F800D20817431E4039E55B46D2085F071743E5
:10290800DD0833E51E4ADB0822405707520201253D
:102918001F43140BC2E50E0001205FE6002B0DD00B
:102928004B465B1B9C46002D00D148E50127382B00
:1029380000DD66E580231B041C4350E56B1C114D2C
:102948002B4200D073E65946230011438A460343BD
:1029580000E66707C00800230743E50862E6640746
:10296800FF08274305095DE6D208490711430F0010
:1029780002232D0956E60700A4E538008FE4C04677
:10298800FFFF7FFFFE07000070B5002816D0C317B1
:10299800C5185D40C40F280000F0EEF8104B1B1A54
:1029A8005B055B0D0A2814DC02002E0015329640E8
:1029B8000B22121AD5402D032D0B03E0002400230F
:1029C800002500261B052B43E4072343300019008C
:1029D80070BD0B3885402D0300262D0BF2E7C0464D
:1029E8001E04000070B542024300C40FFE201B0EF7
:1029F800591C550A08420CD0E02189008C466D0705
:102A0800120B63441B051343E407234328001900F2
:102A180070BD002B14D1002D1BD0280000F0ACF89D
:102A28000A281CDC0B232A001B1ADA400300153382
:102A38009D400E4B12031B1A5B05120B5B0DE1E761
:102A4800002D09D0130B802212031A436D07084B7F
:102A5800D8E700230022D5E70022054BD2E7030080
:102A68002A000B3B9A400025E3E7C0468903000093
:102A7800FF070000F0B54B000F035B0D3A4C450F04
:102A880083B07F0A5E1C2F4300900191CA0FC500D6
:102A980026420BD035495C18FE2C13DDFF2000239D
:102AA800C0051843D207104303B0F0BD3D43002BC7
:102AB80001D10020F4E7002DF0D08023DB03FF20B4
:102AC8003B43EDE7002C0CDD009BFF009B01581EEB
:102AD8008341690F3B430B43590727D1DB08E0B219
:102AE800DEE72100173131DB80211E20090439433C
:102AF800001B1F282DDD02267642341B0E00E640FF
:102B08003400202804D01A488446634499400D4371
:102B18002B00591E8B412343590703D00F2119401D
:102B280004290BD19B0100205B0AB9E70F2119404A
:102B3800042904D19B015B0AE0B2B1E70024043305
:102B48005901F7D501340023E0B2A9E7002000239A
:102B5800A6E7084C1C192B00A540C340A140681EDD
:102B6800854129430B43D7E7FE07000080FCFFFFA0
:102B7800A2FCFFFF82FCFFFF1C2101231B049842DB
:102B880001D3000C10391B0A984201D3000A0839F6
:102B98001B09984201D30009043902A2105C4018AD
:102BA8007047C04604030202010101010000000051
:102BB8000000000010B514C914C010BD10B50830CD
:102BC8001CC91CC010BD07238376002303837047EC
:102BD80010B50400837E043BDAB2082A08D89300B3
:102BE8005B4AD3589F4603681B689847012800D062
:102BF80010BD0123237563796375002B04D1083355
:102C0800A376E388E382F3E70622A276013B6375A5
:102C1800EEE7437D002B04D108338376C388C38253
:102C2800E6E7013B4375E3E7C38A002B0AD1093382
:102C38008376C368007D00219847E388E3820023F8
:102C48002383D5E703681B68984700281BD1207D9C
:102C58002379984205D06379002B0FD10A33A376E4
:102C6800C6E7A36898476379002B02D10733A37698
:102C7800BEE7013B63750C23A376B9E7013B637597
:102C88000423A376B4E7E38A013BE382B0E7036851
:102C98001B68984700280ED12369218B207D98470F
:102CA8006379002B02D10733A376A1E7013B637553
:102CB8000B23A3769CE7E38A002B09D1E368207DE8
:102CC800218B013189B221839847E388E3828FE71A
:102CD800013BE3828CE7437D002B02D107338376E7
:102CE80086E7013B437583E7437D002B04D10A3314
:102CF8008376C388C3827BE7013B437578E7036823
:102D08001B689847012808D0E38A002B13D1A368D1
:102D1800207D98470723A3766AE76379002B02D1C1
:102D28000833A37664E7013B63750623A376237D06
:102D3800013323755CE7013BE38259E7437D002BB0
:102D480002D10733837653E7013B437550E7C0460A
:102D58003C640008012800D07047024B01221A7019
:102D6800FAE7C04636000020012800D070476329E2
:102D7800FCD9024B01221A70F8E7C0463500002042
:102D8800012800D070471D29FCD8024B01221A7077
:102D9800F8E7C0463600002010B500F0A1F9013868
:102DA80043425841C0B210BD10B586B0104B114A0D
:102DB8001A6004A91E224A71143ACA80083A0A7194
:102DC80004930D4B01930D4B02930D4B03930D4C44
:102DD8002000FFF7EFFE01A92000FFF7EFFE20001B
:102DE800FFF7F1FE084B01221A7006B010BDC0466D
:102DF80054000020A12D00085D2D0008712D000849
:102E0800892D0008380000203400002010B5024841
:102E1800FFF7DEFE10BDC0463800002000B585B0C3
:102E28000C22002101A803F0ACFA3148314B0360B1
:102E38008023DB05436000238360C3608022120681
:102E4800026108224261037643768376073AC261BB
:102E580020214254436283622B32835480225201E0
:102E680002630522426337328354C36401F0C4F815
:102E780000282BD1204B0193012302931C4801A960
:102E880001F030FA002824D11C4B0193184801A9FD
:102E980001F028FA00281FD1194B0193144801A901
:102EA80001F020FA00281AD1164B0193104801A905
:102EB80001F018FA002815D1134B01930C4801A909
:102EC80001F010FA002810D105B000BD00F07CFA1E
:102ED800D0E700F079FAD7E700F076FADCE700F0FF
:102EE80073FAE1E700F070FAE6E700F06DFAEBE755
:102EF800B40000200024014010000010200000143D
:102F0800001000B0002000B40000014010B588B0E7
:102F180004001422002103A803F033FA22681E4B90
:102F28009A4201D008B010BD1C4B1A6C802149038D
:102F38000A431A641A6C0A400192019A596B0122D9
:102F4800114359635B6B1A400292029B144B039323
:102F580003230493A02003A9C00501F09DFE114896
:102F6800114B03600523436000238360C360802204
:102F78000261803242618022D2008261C3610362B1
:102F880001F07EFD002803D1064B23659C62C9E74A
:102F980000F01AFAF8E7C046002401400010024089
:102FA800301000005800002008000240014B1B6848
:102FB80058637047F0010020014B1B685863704745
:102FC8005801002010B5431E9841C2B28021A020AC
:102FD8000901C00501F021FF10BD0000014B1B686D
:102FE80098637047F001002010B5054B1870431E18
:102FF8009841C2B2A0200821C00501F00EFF10BD03
:1030080001000020034A1368D862D0604008586362
:103018007047C0463C02002010B500280FD000F0D1
:1030280029FE0C4B1888FFF7EDFF0B4C0021200000
:1030380002F068FF0021200003F05CF810BD064C88
:103048000021200003F0C2F80021200002F0ECFF6C
:10305800F4E7C046100000203C02002010B5124AD8
:10306800136801331360114B1B78002B0FD11049E3
:10307800FDF732F9002800D110BD0020FFF7CCFF82
:103088000A4B01221A70084B00221A60F4E709491A
:10309800FDF70EF90028EFD00120FFF7BDFF034B25
:1030A80000221A70E8E7C04618010020000000203E
:1030B8000AD7A33C6F12033C10B5002806D0802124
:1030C80001220902054801F0A8FE10BD8021002256
:1030D8000902024801F0A1FEF7E7C04600080050C7
:1030E80010B5A0200121C00501F090FE10BD000020
:1030F80010B58021014801F089FE10BD0004005080
:1031080010B5A0200421C00501F080FE10BD00000C
:10311800014B18787047C0460100002010B50C4BD1
:103128000C4A9A610020FFF7C7FF01F0E9FE02216F
:10313800002001F0A3FE0821002001F09FFE0120DD
:1031480001F072FE082001F06FFE01F085FE10BD4F
:10315800007000402B00010000B583B0094A916B54
:10316800012319439163926B13400193019B002241
:103178000021092001F01CFC092001F01DFC03B00E
:1031880000BDC04600100240F0B5D6464F46464640
:10319800C0B588B01422002103A803F0F2F8364B1A
:1031A8005A6B02273A435A635A6B3A400092009A84
:1031B800596B042211435963596B0A400192019AD1
:1031C8005A6B012632435A635B6B33400293029B6E
:1031D80080231B029A46294B994600225146180023
:1031E80001F01BFEA025ED0501220821280001F0B1
:1031F80014FE80231B01984600221900280001F0C4
:103208000CFE8023039300240494059703A91C480B
:1032180001F042FD5346039304960594069403A9CE
:10322800484601F039FD03960494059703A9280040
:1032380001F032FD062303930494059403A92800A2
:1032480001F02AFD08230393093304930594069497
:1032580003A9280001F020FD434603930496059432
:10326800069403A9280001F017FD08B0E0BCBA468F
:10327800B146A846F0BDC046001002400008005004
:103288000004005010B50A4B1B78002B00D110BD6C
:1032980000F050F9FFF7BAFD00F066F900F032FAD5
:1032A80000F092FB03490448052201F0D1F9EEE74A
:1032B8003400002034010020B400002010B502685A
:1032C800034B9A4200D010BD00F0BEFBFBE7C0469E
:1032D80000200040F8B5324B1888FFF755FB002254
:1032E800304BFEF761FC06000F002F4DE88880B2D6
:1032F800FFF74AFB02000B0030003900FEF71AF80E
:10330800FFF7B8FB294CE060E668A88880B2FDF7B3
:10331800FBFB311CFDF79EFAE6218905FDF79AFAB9
:10332800A060E668288880B2FDF7EEFB311CFDF747
:1033380091FAE6218905FDF78DFA011CFCF7E0FFFB
:103348002060E668688880B2FDF7DEFB311CFDF777
:1033580081FAE6218905FDF77DFA6060E66828892B
:1033680080B2FDF7D1FB311CFDF774FAE62189051F
:10337800FDF770FA2061A068FFF734FB0C4A0D4B8B
:10338800FEF7F8FE0C4A0D4BFDF7D4FF00220C4B5C
:10339800FDF70AFCFFF76EFB0A4B1860F8BDC04644
:1033A800AA75FF1F000008403401002020010020FA
:1033B80052B81E85EB51E83F7B14AE47E17A643F73
:1033C80000003E401C01002072B6FEE700B593B035
:1033D8003422002105A802F0D4FF1022002101A800
:1033E80002F0CFFF8020800001F094FD02230593B6
:1033F800FE3308930023099340220A920C9305A8F0
:1034080001F0B2FD00280DD1072301930023029398
:1034180003930493002101A802F054F8002803D173
:1034280013B000BDFFF7D0FFFFF7CEFF10B500F0D7
:10343800BDFD1C4B1C4A9A61012001F003FD0820C8
:1034480001F000FDFFF7C2FFFFF79EFEFFF784FEC5
:10345800FFF7E4FC00F00EFC00F090FC00F0F8FC34
:1034680000F032FB114C0021200002F04BFD04213A
:10347800200002F047FD0E48002102F043FD0D48F0
:1034880002F032FA0C4B1A68516C80231B020B4372
:1034980053640A4801F084F90120FFF70DFEFFF795
:1034A80083FCFEE70070004000010100F0010020ED
:1034B80058010020A40100203C020020B400002094
:1034C80082B00A4B196C012211431964196C0A4025
:1034D8000092009ADA6B802149050A43DA63DB6BB4
:1034E8000B400193019B02B07047C0460010024098
:1034F800FEE7FEE77047704710B500F06BFDFFF779
:10350800C1FE10BD10B5024801F060FB10BDC046F9
:103518005800002010B5024802F020FA10BDC0463D
:10352800A4010020024B802212059A607047C04611
:1035380000ED00E010B5A0200221C00501F066FCF6
:1035480043425841054B1870FFF7D2FD044B1870E1
:10355800FFF7D6FD034B187010BDC046510100207F
:10356800500100204F01002010B5FFF7D1FD0100E8
:103578005C4B18705C4B1A78062A2AD893005B4A71
:10358800D3589F465A4B1B78002B01D0002803D1F3
:10359800554B01221A701CE0564B1B78012B05D0A5
:1035A800002B16D1504B05221A7012E04E4B032205
:1035B8001A700EE0504B1B889BB2002B0AD04E4A63
:1035C8001388013B9BB213804B4B188880B2FFF7DE
:1035D800F3FC10BD444B02221A70F5E7444B1B78EC
:1035E800012B0BD0012BF4D10129F2D1414B1B78CF
:1035F800002BEED13C4B05221A70EAE70128F1D1E5
:103608003C4A1278012AEDD1374B02321A70E0E7B2
:103618003A4B01221A70344B03321A70D9E7374BF0
:103628001B78012B1AD0344B1B889BB2002B25D05A
:10363800314A1388013B9BB213802F4B188880B204
:10364800FFF7BAFC2A4B1B78002B03D0254B1B78BD
:10365800002B17D1244B01221A70BAE7264B1B887E
:103668009BB2274A934205D8234A138801339BB259
:103678001380E2E7214B00221A70DEE71F4B01227C
:103688001A70DAE71B4B1B78002BA2D1164B0522C8
:103698001A709EE7184B1B889BB2194A93420AD8A6
:1036A800154A138801339BB21380134B188880B2D4
:1036B800FFF782FC8DE70C4B06221A70F5E70C4BDE
:1036C8001B78002B01D0002803D1074B01221A7068
:1036D8007FE7084B1B78012B00D07AE7024B0322C7
:1036E8001A7076E74E01002055010020A0640008FA
:1036F8004F010020510100204C010020090000204A
:10370800E603000010B5984B1B68984A934206DC04
:10371800974A1278052A02D0934A01331360944BD2
:103728001A78072A09D89300924AD3589F4601204D
:10373800FFF75AFC8E4B01221A708F4B1888FFF73F
:1037480035FC8E4B1888FFF749FC10BD0120FFF7A8
:103758004BFC8B4B1B78012B0CD08A4B1B78012B15
:10376800EBD1834B07221A70854B00221A70854BC8
:103778001A70E2E77E4B02221A70834801F010F8B3
:103788007F4B00221A707F4B1A70D6E77F4B1B784D
:10379800012B0DD07E4B1B78002B1BD07D4B0522B7
:1037A8001A807D4B5F321A60714B5E3A1A70C4E71B
:1037B8006D4B1A68794B9A42ECDD6D4B05221A70F5
:1037C800754B774A1A60774B01221A70764B0022A4
:1037D8001A80B2E7664B03221A706F4B704A1A6060
:1037E800704B01221A70654B704A1A80624B1A801E
:1037F8000120FFF7E7FBA0E7614B1B78012B0ED0F8
:10380800654B1C68002C0AD0614B1B78012B06D035
:10381800674B18686749FCF74BFD002809D05D4BDA
:1038280005221A805C4B5F321A60514B5E3A1A705F
:1038380083E7594B013C1C607FE70020FFF7D4FB6E
:103848005B4B5868FFF70AFC564B1B78012B33D0AB
:10385800494B1B88002B3CD0474A033B13804C4BF9
:103868001B78002B39D1454B504A1A800120FFF7AD
:10387800A9FB4F4B1869FFF7B5F84F4A4F4BFCF7B8
:10388800DDFC00280BD13E4B1B78012B07D03F4BAA
:103898001B78002B03D0344B1B68002B24D13D4BE5
:1038A80005221A803C4B5F321A604548FFF7D6FB69
:1038B8002F4B06221A7040E72F4B1B88414A934230
:1038C80003D82D4A03331380C9E7364B00221A70F8
:1038D800C5E7344B01221A70C1E7284B00221A8031
:1038E8000020FFF76FFBC4E72B490A68013A0A601A
:1038F8001D4A013B136020E70120FFF775FB1F4BB2
:1039080000221A800020FFF787FB0020FFF75AFBF0
:10391800214B1B68002B1ED11E4A1388013B9BB20A
:103928001380DB0713D5144B204A1A801A4B6422E4
:103938001A60184B1B88002B00D0FEE60C4B0122A6
:103948001A700F4B00221A700E4B1A70F5E60A4BCC
:1039580000221A80EAE7104A013B1360E9E7044BAA
:1039680001221A70E9E6C0460C000020DF9304002B
:1039780054010020BC6400084201002044010020DA
:103988003600002035000020B40000204F01002040
:10399800500100204001002048010020307500003F
:1039A800E09304000800002046010020E70300001F
:1039B80020010020000060409A9999999999E93F5F
:1039C8006666663FE603000010B5184B1B78012BAE
:1039D8000AD0022B26D0002B05D1154B154A1A8088
:1039E800124B01221A7010BD114B1B88002B15D0E9
:1039F800114B1B78022B07D00D4B0E4A1A800C4A2C
:103A08001388013B1380EEE70C4B1B78012BF3D195
:103A18000B4B1A680B4B9A42EED1F0E7034B02228C
:103A28001A70E0E7FFF77AFBDDE7C0465301002094
:103A38003E010020102700005501002054010020FD
:103A48000C000020E093040010B51D4B1B78012BDF
:103A58000FD0022B20D0002B0AD11A4B7E22FF3226
:103A68001A80174A01211170188880B2FFF7CAFA24
:103A780010BD144A138801339BB21380C32252002D
:103A8800934203D90E4B853AFF3A1A700D4B1888AA
:103A980080B2FFF7B7FAEBE70A4A1388013B9BB2FB
:103AA8001380BA225200934203D2054B743AFF3A6C
:103AB8001A70044B188880B2FFF7A4FAD8E7C046FA
:103AC800520100201000002010B50948094B03607E
:103AD8000F23436000238360074AC2600361836148
:103AE80002F034F8002800D110BDFFF76DFCFBE7A9
:103AF800A4010020002000400F27000000B585B079
:103B08000368204A934213D01F4A93421CD01F4A8D
:103B1800934223D01E4A934214D11E4B1A6C802123
:103B2800C9020A431A641B6C0B400393039B09E008
:103B3800184B1A6C802109010A431A641B6C0B404C
:103B48000093009B05B000BD124AD16B02231943B4
:103B5800D163D26B13400193019BF3E70D4B1A6CB1
:103B6800802109020A431A641B6C0B400293029BD2
:103B780000220021132000F01BFF132000F01CFF7F
:103B8800E0E7C046002C014000040040002000404F
:103B9800004801400010024030B58BB004001422E8
:103BA800002105A802F0EDFB23682D4A934207D0B7
:103BB8002C4A93421AD02C4A93423DD00BB030BDC8
:103BC8002A4A516B012319435163526B13400193E5
:103BD800019BC0235B0005937F3BFF3B0693099342
:103BE800A02005A9C00501F057F8E7E71F4B5A6B5D
:103BF800012422435A635A6B22400292029A5A6B5A
:103C080002252A435A635B6B2B400393039B402393
:103C1800059306950994A02005A9C00501F03CF874
:103C2800202305930695002307930893099405A973
:103C38000F4801F031F8C1E70C4A516B02231943D0
:103C48005163526B1A400492049A802292000592A2
:103C58000693099305A9064801F01EF8AEE7C04689
:103C6800002C0140000400400048014000100240C0
:103C78000004005000B59DB01022002118A802F0E1
:103C880080FB0C22002115A802F07BFB1C220021DE
:103C98000EA802F076FB3422002101A802F071FB85
:103CA8003448354B03600023436083609022FF3221
:103CB800C26003614361836101F048FF002846D177
:103CC80080235B0118932B4818A902F089F8002873
:103CD80040D1284801F06AFF00283ED100231593FF
:103CE80016931793234815A902F0AEFA002837D186
:103CF80060230E9367330F9300231093119312934D
:103D0800139314931B4800220EA901F0BBFF00284F
:103D180029D100230193029303930122049205936E
:103D280080229201069207930893099380229204B5
:103D38000A920B930C930D930E4801A902F0BCFA5A
:103D4800002813D10B48FFF727FF1DB000BDFFF770
:103D58003BFBB5E7FFF738FBBBE7FFF735FBBDE7F4
:103D6800FFF732FBC4E7FFF72FFBD2E7FFF72CFB87
:103D7800E8E7C0463C020020002C014000B58FB0A7
:103D8800102200210AA802F0FCFA0C22002107A840
:103D980002F0F7FA1C220021684602F0F2FA2948DC
:103DA800294B0360002343608360284AC260036193
:103DB800836101F0CBFE002831D180235B010A9397
:103DC80020480AA902F00CF800282BD11D4801F060
:103DD800EDFE002829D1002307930993194807A964
:103DE80002F032FA002823D16023009300230193C4
:103DF8000293049313480022694601F043FF002808
:103E080019D1022302930F480422694601F03AFFB0
:103E1800002813D10B48FFF7BFFE0FB000BDFFF716
:103E2800D3FACAE7FFF7D0FAD0E7FFF7CDFAD2E71F
:103E3800FFF7CAFAD8E7FFF7C7FAE2E7FFF7C4FACD
:103E4800E8E7C046F001002000040040E703000056
:103E580000B595B01C2200210DA802F092FA342278
:103E68000021684602F08DFA2248234B03600023A4
:103E780043608360214AC26003614361836101F04A
:103E880065FE00282AD11B4801F090FE002828D1A1
:103E980060230D9300230E930F93109311931293A5
:103EA8001393144800220DA901F0ECFE00281BD141
:103EB80000230093019302930393049380229201B9
:103EC800059206930C930B48694602F0F5F9002811
:103ED8000DD10848FFF760FE15B000BDFFF774FA72
:103EE800D1E7FFF771FAD3E7FFF76EFAE0E7FFF7DC
:103EF8006BFAEEE75801002000480140E703000094
:103F08000D488546FFF70EFB0C480D490D4A002366
:103F180002E0D458C4500433C4188C42F9D30A4A76
:103F28000A4C002301E013600432A242FBD302F0E2
:103F380031FAFFF77BFAFEE700200020000000209E
:103F4800180000201C660008180000208C020020C1
:103F5800FEE7000010B50400114B1978002901D1C3
:103F6800012010BDFA208000FCF7C6F801000D4BB7
:103F78001868FCF7C1F800F02BFD00280DD1032CC0
:103F880001D90120EDE7013000222100404200F074
:103F98000FFD054B1C600020E3E70120E1E7C04668
:103FA80012000020040000201400002010B5084A68
:103FB800116880235B000B4313600320FFF7CAFFDF
:103FC800041E02D00124200010BDFFF779FAFAE799
:103FD80000200240034B1B78034A11685B181360EA
:103FE8007047C0461200002088020020014B186864
:103FF8007047C0468802002030B583B00400002313
:104008000193002800D106E1836D002B13D02368AB
:104018009A68D2001CD49968804A114080225205BF
:104028000A439A607E4B18687E49FCF765F80130B0
:104038004000019009E0FEF769FF0023E365542280
:10404800A354E4E7019B013B0193019B002BF9D1A9
:1040580023689A68D20000D59DE0A26D10210A431A
:10406800A265E26D0F390A43E26501209A680421CE
:104078000D001540114200D00125A26DD20600D5D1
:10408800C2E0002D00D0BFE0A26D67490A400631AA
:10409800FF310A43A2659A68D20752D4A268217EEA
:1040A80089030A43617EC9030A43A57E69030A435B
:1040B800216B002901D0802149010A43E1680A43A4
:1040C8002169002969DB802189030A432C21615C6D
:1040D80049000A432021615C012961D0616A0029F5
:1040E80005D0E0256D002940A56A29430A43D9680F
:1040F8004E4D29400A43DA6063689B0F9B07E26CC8
:104108001A433C21615C012959D021680B69484D4B
:104118002B4013430B616368C0221206934210D0F0
:104128008022D20593420CD080221206934208D0F6
:1041380040490A68404D2A40F025AD032B401343FF
:104148000B602168636B4A690725AA4313434B61D7
:104158002168A26B4B696935AB43120113434B616C
:104168002369002B35D12268916A103B0B43936277
:1041780023685A6907231340626B9A423BD0A36DA8
:1041880012229343023A1343A365E36D0F3A134394
:10419800E36501203DE0002068E74900490894E70D
:1041A800002D03D1802149020A4397E7A16D2025FC
:1041B8002943A165E16D1F3D2943E1658EE7216C27
:1041C8000B43616C0B43A16C0B43134301221A434D
:1041D8009BE7802292039342CAD121688B6AE369E4
:1041E800013B9B001C221A4010235B429340226E25
:1041F80013438B62BCE70023E365A36D032293435B
:10420800023A1343A36504E0A36D10221343A36588
:10421800012003B030BD0120FBE7C046E8FFFF6F77
:1042280004000020400D0300FDFEFFFF0102DEFF39
:1042380002FCFF1F08270140FFFFC3FF704710B5AE
:10424800806AFFF7FBFF10BD704710B5806A836D69
:10425800402213438365C36D3C3A1343C365FFF79C
:10426800F3FF10BD10B50300806A826D5021114222
:104278002AD1826D80239B00134383650368D96824
:10428800C0221201114213D1827E002A10D11A686D
:1042980012070DD59A6852070DD45A680C218A4323
:1042A8005A60836D0E4A13400432FF32134383650C
:1042B800FFF710F810BD836D202213438365C36D8B
:1042C8001F3A1343C365F3E7826DD20604D4026D27
:1042D800526B18009047EDE7FFF7B6FFEAE7C046D4
:1042E800FEFEFFFFF0B583B00400002301930569CB
:1042F8005433C35C012B00D12FE154230122C25453
:1043080000688368033216001E401A4209D0A36D64
:104318001C321343A365012054230022E25403B046
:10432800F0BD4B68022B00D1D5E0802212069542E1
:1043380025D08B4A954222D0226E1F271F400F2579
:10434800BD40AA430B685D032FD19B0E1F261E405C
:10435800BE40324322664D68AB080133E26993429E
:1043680013D80E68826A1F231D40103B1F00AF4000
:10437800BA43B60E3340AB401343836205E00B6883
:10438800826A5B035B0B1343836220680B688D684A
:1043980042691B029A432B40724D2B4013434361E1
:1043A8000B68002B4FDB0020B6E7DD07D0D49D0754
:1043B80027D45D0727D41D0727D4DD0627D49D06FB
:1043C80027D45D0627D41D0627D4DD0527D49D05EF
:1043D80027D45D0527D41D0527D4DD0427D49D04E3
:1043E80027D45D0427D41D0427D4DD0327D49D03D7
:1043F80027D48025ED021E002E402B42A8D012267D
:10440800A6E70126A4E70226A2E70326A0E70426DA
:104418009EE705269CE706269AE7072698E70826DA
:1044280096E7092694E70A2692E70B2690E70C26DA
:104438008EE70D268CE70E268AE70F2688E71026DA
:1044480086E7112684E7484A1168E02252040A40A8
:104458004648834207D04648834222D04548834293
:104468002CD0002058E70802F5D480231B041343FE
:104478003D490A684048024013430B603F4B1868A7
:104488003F49FBF739FE013043001B189B0001939D
:1044980002E0019B013B0193019B002BF9D1002015
:1044A8003AE7C801DAD480235B0413432E490A682B
:1044B8003148024013430B6000202DE749024AD4DB
:1044C8008023DB03134328490A682B48024013431F
:1044D8000B60002020E780231B069D4202D0204B62
:1044E8009D4205D10B68826A5B035B0B9A4382622B
:1044F8000B68002B01DB00200EE71B4A12681B49E2
:104508008B4207D01A498B420FD01A498B4217D0D9
:10451800002001E7A0235B041A4013490B681648E2
:1045280003401A430A600020F6E6C0231B041A4021
:104538000D490B68104803401A430A600020EBE657
:10454800C0235B041A4008490B680B4803401A4310
:104558000A600020E0E60020DEE60220DFE6C04632
:104568000400008000FFFF0708270140001000B08A
:10457800004000B8002000B4FFFF3FFE0400002008
:10458800400D030030B583B0040000230193036895
:104598009A68D2074FD49968284A114211D19A686B
:1045A80027490A4001210A439A60264B1B681B02CF
:1045B80017D5254B18682549FBF79EFD013001905A
:1045C8000CE0836D102213438365C36D0F3A1343C8
:1045D800C365012030E0019B013B0193019B002B47
:1045E800F9D1637E012B01D1002025E0FFF7FEFC05
:1045F800050023681A68D2071BD49A68D20705D425
:104608009A680F490A4001210A439A60FFF7EEFCB5
:10461800401B0228EDD923681B68DB07E9D4A36D8A
:1046280010221343A365E36D0F3A1343E36501209A
:1046380002E0002000E0002003B030BD1700008039
:10464800E8FFFF7F0827014004000020400D030019
:1046580070B504000D001600026893685B0747D424
:104668005423C35C012B45D0012354214354D16802
:104678000B420DD19368DB0705D593681E490B40A3
:1046880002210B4393602268D36801210B43D36056
:104698002000FFF777FF00282BD1A26D174B1A4097
:1046A80080235B001343A3650023E365226D14494F
:1046B800D162226D13491163226D13495163226837
:1046C8001C2111605422A354226853680C390B43EF
:1046D800536021684031206D33002A0000F028FA29
:1046E8002268936804490B4004210B43936000E05F
:1046F800022070BD0220FCE7E8FFFF7FFEF0FFFF0D
:104708006D420008474200085342000870B5040093
:1047180003689A68022108001040114200D0012065
:104728009A68D20735D5002835D1996805220A40FC
:10473800012A09D0A36D10221343A365E36D0F3A34
:104748001343E365012025E09A6814490A400221D1
:104758000A439A60236803221A60FFF747FC0500A2
:1047680023689B68DB0712D5FFF740FC401B022833
:10477800F6D923689B68DB07F2D5A36D1022134393
:10478800A365E36D0F3A1343E365012002E00020BF
:1047980000E0002070BD0020FCE7C046E8FFFF7F76
:1047A800F0B583B00400002301935433C35C012B9C
:1047B80000D1A2E001265423C654FFF7A7FF050045
:1047C80023689A6831001140164209D0A36D10225F
:1047D8001343A36554230022E254280003B0F0BD1C
:1047E800A26D474802400630FF300243A265DE68EA
:1047F800444A1640DA6844480240DA60080005E096
:10480800B4229A587F231340C018013107291CD8B5
:104818002768BA683D4B1A4018331343BB602368B6
:104828009A68002AECDA019B01330193019A384B0C
:104838009A42F4D9A36D12229343023A1343A36513
:1048480054230022E2540125C7E7FBF755FC2268F0
:1048580093682E490B4001210B439360226811692C
:104868008023DB05994217D22A4B1B68F021890364
:104878000B40E02149038B420ED39B0C033B0121E3
:1048880099400091009B5B08009302E0009B013B6C
:104898000093009B002BF9D1B42153587F27BB43C9
:1048A800184350502268936818490B4002210B4363
:1048B8009360FFF79BFB070023689A68D20709D427
:1048C800DA683243DA60A36D03229343023A134352
:1048D800A3657FE7FFF78AFBC01B0228ECD9236892
:1048E8009B68DB07E8D5A36D10221343A365E36D2E
:1048F8000F3A1343E36501256FE702256DE7C046CC
:10490800FDFEFFFF03800000FC7FFFFFE8FFFF7F45
:10491800FFF102000827014070B5002811DB830869
:10492800134DC0339B005C5903221040C000FC3279
:1049380016008640B44389010A40824022435A51F6
:1049480070BD0F230340083B9B0806339B00094AB0
:10495800944663445C6803221040C000FC32150092
:104968008540AC4389010A40824022435A60E7E708
:1049780000E100E000ED00E0013880235B0498428C
:104988000FD2094A50600948036A1B021B0AC0215A
:1049980009060B430362002393600733136000206A
:1049A80070470120FCE7C04610E000E000ED00E0A1
:1049B80010B5FFF7B1FF10BD002805DB1F2202402C
:1049C80001239340014A13607047C04600E100E0AC
:1049D80010B5FFF7D1FF10BDF0B5846CC56C6560EC
:1049E800046D002C02D0446D856D65600B4F7C68AA
:1049F800056C1C262E400125B5402C437C600468BC
:104A080063608368102B04D0036899600368DA60D8
:104A1800F0BD03689A600368D960F9E700000240B6
:104A280010B50400036C9B08094A944663449B0034
:104A380043640368FF20184008381421FBF75CFB27
:104A4800044BA3641F2318401E3B8340E36410BD3E
:104A5800008200108008024042683F231340064A43
:104A68009A1892000265054A4265013B03221A40E2
:104A780001239340836570473F820010400902403C
:104A880070B5041E4DD00568274BE8181421FBF7B4
:104A980033FB8000206425230222E2542B68234A3A
:104AA80013402B6021680A68A368E0680343206903
:104AB800034360690343A0690343E0690343206A31
:104AC800034313430B602000FFF7AAFFA26880236B
:104AD800DB019A4218D06168626C3F230B40136077
:104AE800A36CE26C5A606368013B032B0FD9002367
:104AF80023656365A3650023E36325220121A1548F
:104B0800013AA354002070BD00236360E3E720004E
:104B1800FFF7A2FF236D00221A60636DA26D5A6031
:104B2800E9E70120EFE7C046F8FFFDBF0F80FFFF70
:104B380070B504002420205C012845D024200125DC
:104B480025540130205C012806D08023E3635C3BB8
:104B58000022E254012070BD243001352554002084
:104B6800E063256828680126B04328602000FFF725
:104B780033FF236B002B1CD0226813680E210B43D4
:104B88001360626C1368DB0304D5116880235B0033
:104B98000B431360236D002B04D019688022520048
:104BA8000A431A602268136801210B43136000202E
:104BB800D1E72268136804218B43136022681368C5
:104BC80006310B431360DCE70220C4E770B5314BB4
:104BD800196804682568026C1C23134004229A4053
:104BE800114216D06A0714D523689B0603D423689C
:104BF800042293432360274C6368026C1C211140F4
:104C080004228A4013436360036B002B00D098474B
:104C180070BD02229A4011421CD0AA071AD52368F7
:104C28009B0606D423680A22934323602523093A66
:104C3800C254184C6368026C1C21114002228A403D
:104C48001343636024230022C254C36A002BDFD0BD
:104C58009847DDE708229A401142D9D02D07D7D5C9
:104C680023680E22934323600A4C6268036C1C215C
:104C7800194001231D008D402A436260C363252229
:104C8800835423330022C254436B002BC0D098476F
:104C9800BEE7C04600000240F0B5002359E0866830
:104CA8005F000324BC40A643CC68BC403443846006
:104CB800446894434E683609012232409A402243A0
:104CC800426056E0DE080836B600375805321A400A
:104CD80092000F249440A7430C69944022003A4361
:104CE800325059E0032600E00026A64034003C4339
:104CF800424E1832920094513768EA433E00AE4360
:104D08004C68E40201D53E002E433C4C266067689F
:104D18003E0016404C68A40201D53E002E43374C95
:104D280066608426A7593E0016404C68A40301D546
:104D38003E002E43314C8427E6518026A659324046
:104D48004C68E40301D52A0032432C4D80242A51B3
:104D580001330C682200DA404ED001229A40250027
:104D680015401442F4D04E6803243440013C012C11
:104D780095D94C6803222240032A08D0C4685E00F3
:104D88000322B24094438A68B2402243C2604C680E
:104D980003222240022A95D004685E0003221700ED
:104DA800B740BC434F683A40B240224302604C6867
:104DB800C02292021442CBD09A0814001834A400DE
:104DC8000E4EA75903241C40E4000F26A640B74303
:104DD800A026F605B04287D0094EB04208D0094E49
:104DE800B04207D0084EB04200D17BE705267CE7E9
:104DF80001267AE7022678E7F0BDC046001802408F
:104E08000004005000080050000C005003690B42D9
:104E180001D0012070470020FCE7002A01D0816101
:104E280070478162FCE700000549CA682B230340EC
:104E38009A43000A0243CA608A6813438B6070472A
:104E48000070004003498B682B22024093438B601B
:104E58007047C04600700040064A136807218B431C
:104E680004390B431360044A136901310B4313617E
:104E780030BF70470070004000ED00E0052834D8CE
:104E880080001B4B1B589F461A4B1A6A1A48084049
:104E980002431A625A6A194801408A435A6200203A
:104EA8007047144B9A6A0A439A62DA6A8A43DA624A
:104EB8000020F5E70F4B1A6B0A431A635A6B8A43B3
:104EC8005A630020ECE70B4B9A6B0A439A63DA6B40
:104ED8008A43DA630020E3E7064B9A6C0A439A6434
:104EE800DA6C8A43DA640020DAE70120D8E7C046A2
:104EF800DC64000800700040FFBFFFFFFFDFFFFF1A
:104F0800034A91688023DB000B4393607047C046D7
:104F18000070004010B5104A136810490B40034355
:104F2800136080239B00984201D0002010BD0C4BD9
:104F38001B685800C01840000A49FBF7DDF801302B
:104F4800054B5B695B0503D5002803D00138F7E7FB
:104F58000020EBE70320E9E700700040FFF9FFFFBE
:104F68000400002040420F0070B582B0041E00D13A
:104F780029E20368DB0739D5C14A916838230B4019
:104F8800D16803220A40102B26D0082B26D063684C
:104F98008022520293427FD0A022D202934200D1B3
:104FA80081E0B74B1A68B7490A401A601A68B649CF
:104FB8000A401A606368002B00D180E0FFF716F8FA
:104FC8000500AF4B1B689B0310D4FFF70FF8401B7D
:104FD8006428F6D90320F7E1032AD6D1A84B1B6829
:104FE8009B0303D56368002B00D1EFE123689B077F
:104FF80031D5A34A916838230B40D16803220A406F
:10500800102B6AD0002B6BD19D4A1268520503D52C
:10501800E268002A00D1DBE1994842689B490A40CE
:10502800616909020A434260002B0DD1036898495F
:105038000B4021690B4303600368DB0A07221A400F
:10504800944BD340944A1360944B1868FEF782FF40
:10505800002800D0BEE123681B0700D481E0884BFC
:105068009A6838231340182B73D0A369002B00D1FA
:10507800B4E0834A136E01210B431366FEF7B6FFB3
:1050880005007F4B1B6E9B076BD4FEF7AFFF401BE1
:105098000228F6D9032097E1794A116880235B0238
:1050A8000B43136086E7764B19688022D2020A43C5
:1050B8001A601968802252020A431A607AE7FEF7DA
:1050C80095FF05006E4B1B689B038FD5FEF78EFF7F
:1050D800401B6428F6D9032076E1022A92D193E78F
:1050E800E368002B22D0664A136869490B4021699E
:1050F8000B431360116880235B000B431360FEF7BA
:1051080075FF05005E4B1B685B0506D4FEF76EFF56
:10511800401B0228F6D9032056E159494B685B4ADF
:1051280013406269120213434B6094E7544A1368B0
:105138005B490B401360FEF759FF0500504B1B6895
:105148005B0588D5FEF752FF401B0228F6D90320DD
:105158003AE14B4B1B6E9B0703D5A369002B00D18B
:105168003AE123685B0700D4A2E0454B9A683823EC
:105178001340202B45D0424BDB6BDB004AD4404B1D
:10518800DA6B802149050A43DA63DB6B0B40019334
:10519800019B0125434B1B68DB053DD5A368012B0B
:1051A8004ED0052B52D0364BDA6D01218A43DA6591
:1051B800DA6D03318A43DA65A368002B50D0FEF715
:1051C80015FF06002E4BDB6D9B076FD4FEF70EFF15
:1051D800801B354B9842F5D90320F5E0284A136E19
:1051E80001218B431366FEF701FF0500244B1B6E5C
:1051F8009B07B6D5FEF7FAFE401B0228F6D9032016
:10520800E2E01F4BDB6D9B0752D5A368002B4FD103
:105218000120D9E00025BDE7224A116880235B0000
:105228000B431360FEF7E2FE06001E4B1B68DB050E
:10523800B4D4FEF7DBFE801B0228F6D90320C3E0B6
:105248000F4AD36D01210B43D365B5E70C4BDA6DDB
:1052580004210A43DA65DA6D03390A43DA65ABE7F4
:10526800FEF7C4FE0600064BDB6D9B071ED5FEF756
:10527800BDFE801B0C4B9842F5D90320A4E0C04624
:1052880000100240FFFFFEFFFFFFFBFFFF80FFFF54
:10529800FFC7FFFF0024F4000400002014000020D2
:1052A800FFFEFFFF0070004088130000012D1ED094
:1052B800E369002B00D191E04F4A916838220A40F7
:1052C800102A5ED0022B18D04B4A13684B490B406A
:1052D8001360FEF78BFE0400474B1B689B0149D502
:1052E800FEF784FE001B0228F6D903206CE0424A30
:1052F800D36B43490B40D363DAE73F4A13683F490E
:105308000B401360FEF772FE05003B4B1B689B01C8
:1053180006D5FEF76BFE401B0228F6D9032053E0A2
:10532800354AD36837491940236A606A0343A06A3B
:1053380000020343E06A0343206B03430B43D3603B
:10534800116880235B040B431360D16880235B05DD
:105358000B43D360FEF74AFE0400274B1B689B01F2
:1053680006D4FEF743FE001B0228F6D903202BE0E3
:10537800002029E0204AD36823490B40D36000204D
:1053880022E0012B2CD01C4BDA6803231340216A3E
:105398008B4227D170231340616A8B4224D1FE21AE
:1053A800C9011140A36A1B0299421FD1F8239B032C
:1053B8001340E16A8B421BD1520F5207236B9A426A
:1053C80018D1002000E0012002B070BD0120FBE7E9
:1053D8000120F9E70120F7E70120F5E70020F3E7CE
:1053E8000120F1E70120EFE70120EDE70120EBE7DD
:1053F8000120E9E70120E7E700100240FFFFFFFE78
:10540800FFFFFFEF8C80C11FFCFFFEEF10B52A4B9A
:105418009B6838221A4207D1274B1A68D20A0723F9
:1054280013402648D84010BD234B9A6838231340B0
:10543800082B3BD0204B9A6838231340102B0DD0F3
:105448001D4B9A6838231340202B31D01A4B9A6889
:1054580038231340182B26D00020E4E7164AD168D9
:105468000D3B0B40D2681209072111400131032B73
:105478000FD01248FAF740FE0F4BDA68120A7F2362
:10548800134058430C4BD968490F0131FAF734FEE1
:10549800C9E70B48FAF730FE074BDA68120A7F2390
:1054A80013405843EEE7FA20C001BCE70448BAE7C6
:1054B80080200002B7E7C046001002400024F40034
:1054C80000127A0070B504000D00002800D1AAE08F
:1054D800574B1A68072313408B4221D323689A0736
:1054E8000ED55B0705D5534A9168E023DB010B43D2
:1054F8009360504A936850490B40A1680B439360EE
:105508002368DB0754D56368012B20D0022B3BD0DE
:10551800002B3FD1474A126852051CD401206AE08B
:10552800434A136807218B432B431360FEF75EFD44
:1055380006003F4B1A6807231340AB42CED0FEF754
:1055480055FD801B3D4A9042F3D9032053E0394A68
:105558001268920369D537498A6807208243134342
:105568008B60FEF743FD0600324B9B6838221A40D9
:105578006368DB009A421BD0FEF738FD801B2F4B77
:105588009842F1D9032036E02A4A12689201E2D4FF
:10559800012030E0032B05D0264AD26D9207DAD4D9
:1055A800012028E0234A126E9207D4D4012022E079
:1055B8001F4B1A6807231340AB421DD823685B07AB
:1055C80006D51C4A93681E490B40E1680B4393605B
:1055D800FFF71CFF174B9A68120A0F231340194A4A
:1055E8009B009A581F231340D840174B1860174B3D
:1055F8001868FEF7AFFC70BD0D4A136807218B438E
:105608002B431360FEF7F2FC0600094B1A680723C8
:105618001340AB42D2D0FEF7E9FC801B074B9842FF
:10562800F3D90320E7E70120E5E70120E3E7C046D7
:105638000020024000100240FFF0FFFF8813000026
:10564800FF8FFFFF606400080400002014000020A2
:1056580030B5056A036A012293430362426883698D
:10566800164C23400C681C4302239D438B682B4334
:10567800134DA84205D0134DA84202D0124DA8429E
:1056880006D10825AB431D00CB682B430425AB434B
:105698000B4DA84205D00B4DA84202D00A4DA84296
:1056A80005D10A4D2A404D6915438A692A4342604B
:1056B80084614A684263036230BDC0468CFFFEFFC6
:1056C800002C01400044014000480140FFFCFFFF5E
:1056D80030B5046A036A164A134003624268C36914
:1056E800144D2B400D681D43134B1C408B681B0247
:1056F8002343124CA04206D0114CA0420AD0114CB0
:10570800A0420FD106E0104C1C40CB681B0223437B
:105718000E4C23400E4C22404C69240114438A69E4
:10572800120122434260C5614A68C263036230BD08
:10573800FFFEFFFF8CFFFEFFFFFDFFFF002C014077
:105748000044014000480140FFF7FFFFFFFBFFFF57
:10575800FFCFFFFF30B5046A036A114A13400362A2
:105768004568C3690F4A13400A6812021A430E4B70
:105778001C408B681B0323430C4CA04205D00C4CE7
:10578800A04202D00B4CA04204D10B4C2C404D69D6
:10579800AD0125434560C2614A680264036230BDB9
:1057A800FFEFFFFFFF8CFFFEFFDFFFFF002C014034
:1057B8000044014000480140FFBFFFFF30B5046AC4
:1057C800036A114A134003624268436D0F4D2B4030
:1057D8000D681D430E4B1C408B681B0423430D4C66
:1057E800A04205D00C4CA04202D00C4CA04204D1DF
:1057F800054C14404A6912022243426045654A68D2
:105808008265036230BDC046FFFFFEFF8FFFFEFFCB
:10581800FFFFFDFF002C014000440140004801400B
:1058280030B5046A036A114A134003624568436D40
:105838000F4A13400A6812021A430E4B1C408B6829
:105848001B0523430C4CA04205D00C4CA04202D0AF
:105858000B4CA04204D10B4C2C404D69AD022543A2
:10586800456042654A68C265036230BDFFFFEFFFCD
:10587800FF8FFFFEFFFFDFFF002C014000440140C7
:1058880000480140FFFFFBFF30B5036A046A0125A9
:10589800AC4304628469EF35AC43120122430A2405
:1058A800A3430B438261036230BD000030B5036A35
:1058B800046A1025AC4304628469054D2C40120328
:1058C8002243A024A343090119438261016230BD28
:1058D800FF0FFFFF8368034A13400B43072213435C
:1058E800836070478FFFCFFF3D23C35C012B22D11C
:1058F8003C330222C2540268D36801210B43D360AF
:105908000368104A934208D00F4A934205D01A6898
:1059180001210A431A6000200EE09A680B490A40E8
:10592800062A0AD007398A4209D01A6801210A438F
:105938001A60002000E0012070470020FCE70020EA
:10594800FAE7C046002C01400004004007000100AF
:1059580070477047704770477047000070B5050082
:105968000368DE681C69A2070ED5B2070CD50322AE
:1059780052421A610123037703689B699B0757D03A
:10598800FFF7E8FF00232B77630712D5730710D5BD
:105998002B68052252421A6102232B772B689A69D9
:1059A800C0239B001A4249D02800FFF7D3FF0023E9
:1059B8002B77230710D533070ED52B6809225242BF
:1059C8001A6104232B772B68DB699B073DD02800DD
:1059D800FFF7C0FF00232B77E30612D5F30610D597
:1059E8002B68112252421A6108232B772B68DA6937
:1059F800C0239B001A422FD02800FFF7ABFF0023DB
:105A08002B77E30701D5F3072DD482239B011C4292
:105A180001D033062FD4E30501D5330632D463060B
:105A280001D5730635D4A40601D5B60639D470BDA0
:105A3800FFF78FFF2800FFF78EFFA3E72800FFF787
:105A480088FF2800FFF787FFB1E72800FFF781FFED
:105A58002800FFF780FFBDE72800FFF77AFF28003E
:105A6800FFF779FFCBE72B68022252421A61280020
:105A7800FDF724FCC9E72B680E4A1A61280000F0DC
:105A88007EFCC8E72B680C4A1A61280000F078FCF5
:105A9800C5E72B68412252421A612800FFF75CFFD4
:105AA800C1E72B68212252421A61280000F066FCE7
:105AB800BDE7C0467FDFFFFFFFFEFFFF03681D4A0B
:105AC800904202D01C4A904203D1702293434A6804
