:020000040800F2
:1000000000200020DD3800082D2F00082F2F0008C9
:1000100000000000000000000000000000000000E0
:10002000000000000000000000000000312F000868
:100030000000000000000000332F0008352F0008EA
:100040002D390008000000002D3900082D39000866
:100050002D3900082D3900082D3900082D390008E8
:1000600000000000412F00082D3900082D3900083C
:100070002D3900082D3900082D3900080000000036
:100080002D3900080000000000000000512F00087A
:10009000000000002D3900082D3900082D39000816
:1000A0002D3900082D3900082D3900082D39000898
:0800B0002D39000800000000DA
:1000B80010B5064C2378002B07D1054B002B02D036
:1000C800044800E000BF0123237010BD1800002081
:1000D80000000000245D0008044B10B5002B03D07D
:1000E8000349044800E000BF10BDC04600000000FE
:1000F8001C000020245D0008002243088B4274D3B2
:1001080003098B425FD3030A8B4244D3030B8B4210
:1001180028D3030C8B420DD3FF22090212BA030C19
:100128008B4202D31212090265D0030B8B4219D3FA
:1001380000E0090AC30B8B4201D3CB03C01A52411A
:10014800830B8B4201D38B03C01A5241430B8B4262
:1001580001D34B03C01A5241030B8B4201D30B034B
:10016800C01A5241C30A8B4201D3CB02C01A524172
:10017800830A8B4201D38B02C01A5241430A8B4235
:1001880001D34B02C01A5241030A8B4201D30B021E
:10019800C01A5241CDD2C3098B4201D3CB01C01A38
:1001A800524183098B4201D38B01C01A5241430942
:1001B8008B4201D34B01C01A524103098B4201D330
:1001C8000B01C01A5241C3088B4201D3CB00C01A9D
:1001D800524183088B4201D38B00C01A5241430815
:1001E8008B4201D34B00C01A5241411A00D201463A
:1001F800524110467047FFE701B5002000F006F8AD
:1002080002BDC0460029F7D076E770477047C04660
:10021800844608006146FFE71FB500F035FA00285C
:1002280001D40021C8421FBD10B500F0B5F9404205
:10023800013010BD10B500F027FA002801DB0020BE
:1002480010BD012010BDC04610B500F01DFA0028F1
:1002580001DD002010BD012010BDC04610B500F022
:10026800C3F9002801DC002010BD012010BDC046E4
:1002780010B500F0B9F9002801DA002010BD0120FE
:1002880010BDC046F8B5CE46474643025A0A4E024C
:100298004500C40F480091462D0E720A000E944680
:1002A80080B59B09C90FB6092A1A8C4221D0002AA9
:1002B8000DDD00282DD1002E00D18DE0511E012A20
:1002C80000D11DE1FF2A00D1ABE00A0027E0002A97
:1002D8004DD0421B002D00D0CCE0002B00D179E09E
:1002E800541E012A00D128E1FF2A00D197E02200FC
:1002F800C5E0002A00DC96E000284FD0FF2D00D191
:100308008FE08021C9040E431B2A51DD2A000133E6
:1003180018E0FF2D00D184E08021C9040E4301219B
:100328001B2A08DC31002020D140821A9640320076
:10033800501E824111435B1A5A0159D407212A00E1
:10034800194049D00F211940042900D0043359011C
:1003580042D5501CFE2A3AD09B01C0B25B0AC005A8
:100368001843E4072043C0BCB946B046F8BDFE2098
:1003780080466F1C38004746074200D08EE0002DAB
:1003880000D0B4E0002B00D1DBE0002E6CD0981B2D
:10039800450100D4F7E00C00F31A3DE0002E1BD015
:1003A800511E012A00D182E0FF2A3AD00A00ABE7A9
:1003B80031002020D140821A96403200501E8241DE
:1003C8000A439B185A01B9D56A1CFE2D75D1FF2026
:1003D8000023C4E70C003300DB08FF2A46D1002BBA
:1003E800F5D08022D20313435B02FF205B0AB6E7F5
:1003F8009F01BF09380002F0FBF8053887408542A5
:1004080024DC3B002021421B0132D3408A1A97404A
:100418007A1E974100223B43590793D197E70C0076
:100428003300DB08DBE7002A14D0421B002D4BD138
:10043800002BD0D0511E012A00D19EE0FF2AEFD018
:100448000A001B2A5FDD0200731C7BE7504B2A1A47
:100458003B40E1E7FE216A1C11423BD1002D5DD1F2
:10046800002B7FD0002E7FD10022DB085B025B0AC5
:10047800D0B274E7FF28D2D08024E40423430124B7
:100488001B2A07DC1C002025D440AA1A93405A1EB8
:1004980093411C43331B05000C004DE79F1B7A0159
:1004A80022D4002FA6D100240020002357E79B194F
:1004B80001250132590100D440E70121354819408E
:1004C8005B0803400B43A7E7FF28A9D08021C90494
:1004D8000B43B6E7FF2A00D179E79B195B08590758
:1004E80000D02FE7DB08C1E70C00F71A82E7002BE2
:1004F8002CD1002E93D180230024FF20DB032EE78C
:1005080001259B1B18E719002025D140AA1A934002
:100518005A1E93410B4305009B1953E7002B00D14A
:100528007EE7002E00D17CE78022D203914502D3DA
:10053800944500D23300DB0853E70C00F31A013569
:10054800FAE6002EAFD00C0033008DE7002E00D164
:1005580067E78022D2039145EDD39445EBD20C0096
:100568003300E8E733007FE79B1900225901B9D52A
:10057800074A1340DB08012278E79B19013201354D
:1005880059019AD4DAE6031E8DD0DB086EE7C0461F
:10059800FFFFFFFBFFFFFF7D70B542004E024C00DE
:1005A80045026D0A120EC30F760A240EC90FFF2AE0
:1005B80010D0FF2C0CD00120A2420AD1B54208D19C
:1005C8008B420FD0002A04D12800431E984100E036
:1005D800012070BD0120FF2CFBD13543F9D14B40E0
:1005E8001800F6E70020F4E730B5420044024D0257
:1005F800C30F4800640A120E6D0A000EC90FFF2AC5
:1006080019D0FF280BD0002A1ED100280BD1002DAD
:1006180027D0002C34D100292FD0080030BD002D60
:1006280028D1002A01D1002CF5D08B4207D1002B0C
:1006380023D01800F2E7002C1CD1FF2814D0581E34
:10064800022318400138E9E70028F8D08B42F6D198
:100658008242F4DCEBDBAC42F1D80020AC42DDD2C4
:10066800E5E7002CDAD0EAE7002D03D18B42E6D18A
:100678000020D3E702204042D0E701204042CDE7E6
:100688008B42E8D0DBE7C04630B5420044024D0259
:10069800C30F4800640A120E6D0A000EC90FFF2A24
:1006A8001AD0FF280ED0002A1ED100280ED1002D06
:1006B8002AD0002C0CD08B421DD0581E0223184083
:1006C800013810E0002D0DD1002A20D1002C1ED1B8
:1006D800002923D0080006E0002C03D1FF28ECD124
:1006E800002D17D0022030BD0028E6D08B42E4D17F
:1006F8008242E2DC04DBAC42DFD80020AC42F2D21A
:10070800002B0BD01800EEE7002CECD0D5E78B427D
:10071800D3D1F5E700208B42E5D0CEE70120404257
:10072800E1E7C046F0B54F464646D64643025B0A67
:100738004500C0B599460F1C2D0EC60F002D00D1DF
:1007480088E0FF2D00D18DE08022DB00D2041A431F
:100758000023914698469A467F3D7C027B00640AB6
:100768001B0EFF0F002B68D0FF2B21D08022E40046
:10077800D204144342467F3B5B1900215D1C0A2AC0
:100788002EDC7E404246022A23DC013A012A00D9A7
:10079800BDE002296ED001292CD100200022C0051D
:1007A800F60710433043E0BCBA46B146A846F0BD50
:1007B8002B00FF33002C65D0032241461143320041
:1007C800013588467A40FF350A2900DDD8E0160051
:1007D8000321404601228240A620C000024220D0C8
:1007E8005346022B46D0032B00D1BBE051464C4662
:1007F8000129D2D02B007F33002B70DD620704D093
:100808000F222240042A00D00434220103D5634B6E
:100818001C402B008033FE2B2CDCA201520AD8B2DC
:10082800BDE790208000024227D1B938FF38104236
:100838006DD03E00A1468A46D2E7002C41D1012363
:1008480042461A4390462B00424601215D1C0A2A63
:1008580097DDC5E7002B26D104239846033B0025E6
:100868009A467AE7002B18D108239846063BFF25BD
:100878009A4672E7FF20002291E780220026FF2097
:10088800D2038CE741460222013511438846FF35E1
:100898000A29A5DC02217E4074E70C239846093B0F
:1008A800FF259A4659E7180001F0A2FE4A46431F61
:1008B80076259A4000236D42914698469A462D1A0D
:1008C8004BE7200001F094FE4246431F9C402B1A40
:1008D800763B00215D1C0A2A00DC52E780E70122F2
:1008E800D31A1B2B00DD58E79E352200AC40DA40B6
:1008F800631E9C412243530704D00F231340042B4B
:1009080000D00432530137D50120002247E7210CDB
:100918004A462404240C2700100C1204120C4443E9
:100928005743484351433A0C09195218944203D982
:10093800802149028C4660443F0411043F0CC919C8
:100948008C01671EBC41120C890E12180C439201CF
:10095800144312010ED5012362081C40144349E7D1
:100968003E00A14680224B46D2031A435202FF2082
:10097800520A14E71D003DE792010020520A0EE7D3
:100988000F29EDD180224B46D2031342EAD01442FC
:10099800E8D13E00FF20224301E7C046FFFFFFF7F2
:1009A80070B5002813D0C317C5185D40C40F2800C0
:1009B80001F01EFE9E2301001B1A962B0FDC08284F
:1009C80034D008398D406D026D0AD8B202E0002497
:1009D80000200025C0052843E407204370BD992B5B
:1009E80016DC421F052800D095402A001148024015
:1009F8006E0709D00F263540042D05D00432550165
:100A080002D59F2302405B1A9201550AD8B2E1E74A
:100A18000522121A2800D040020008001B30854029
:100A28002800451EA84102431500DEE76D02962006
:100A38006D0ACFE7FFFFFFFBF0B557464E46454628
:100A4800DE46E0B583B0009001910C034F00CE0F55
:100A5800610A009C1D03640F0C43009900920193E6
:100A6800C80059004B0D9946009A019B6D0AD90F91
:100A7800530F2B439A46009B7F0DDA0094464A4653
:100A8800B046BA1A8E4200D1B0E0002A00DC78E005
:100A98004946002900D1E9E0C9498F4200D195E1D2
:100AA8000125382A16DC8021534609040B439A464F
:100AB8001F2A00DDE7E1202155468B1A61469D403B
:100AC800D1400D43614699404B1E99415346D3404E
:100AD8000D43E41A451BA84280414042241A2302D0
:100AE80000D40FE16402640A002C00D139E120002F
:100AF80001F07EFD0300083B20212800CA1AD040DF
:100B08009C4002009D4022439F4200DD73E1D81BB8
:100B18000130091A2C008D40C4406B1E9D41130002
:100B2800C2408B402543002714001D436B0709D0A2
:100B38000F232B40042B05D02B1DAB42AD416D423A
:100B480064191D00230200D42DE19D4A0137974204
:100B580000D1D3E046469B49ED0821404A072A4385
:100B68007C054D022D0B640D24052C43F6073443F8
:100B78001000210003B0F0BCBB46B246A946A0460F
:100B8800F0BD002A00D184E04A46D21B002F00D0D5
:100B98006DE12500054300D127E1561E012A00D149
:100BA8003BE2874DAA4200D16AE20125382E12DCC9
:100BB80032001F2A00DDF8E120262500B61A0700BA
:100BC8005346B040D440B540D740461EB0411B1BE9
:100BD8009A463D4305436246551BAC4592415346F0
:100BE80052420E004F4688469C1A78E7002A00DCDD
:100BF8008EE04946002975D161465346194300D114
:100C0800F6E0511E012A00D191E16D4DAA4200D1B2
:100C1800DCE00125382914DC0A001F2A00DDA2E1E6
:100C280020215346891A8B401D006346D3401D433B
:100C380063468B4019004B1E99415346D3400D43E0
:100C4800E4182D188542804140422418230259D5C2
:100C58005B4B01379F4251D001215A4B6A081C4017
:100C680029400A43E507154364085FE76146534690
:100C7800194300D1BCE0511E012A00D164E1504D56
:100C8800AA4200D16AE10125382900DD22E70A00DD
:100C98000EE74D4A7D1C154200D0D0E02500624683
:100CA800534605431A43002F00D037E1002D00D1E9
:100CB800A8E1002A00D16AE16346C51A5346E21A40
:100CC800A8429B415B42D31A1A0200D403E263464E
:100CD8001D1AAC459241534652421C1B0E008846D1
:100CE800A41A23E736498F4270D00125382AA8DC98
:100CF8008021534609040B439A468EE73C000025A1
:100D0800002231E707232B40002B00D010E793E0A7
:100D1800002A74D04A46D21B002F00D1C7E02849C8
:100D2800894500D185E10125382A12DC8021090492
:100D38000C431F2A00DDABE120212500891A07009A
:100D480088408D40D740411E8841D4403D430543EB
:100D5800A2446544654592415242524414004F46AC
:100D680074E7280001F044FC030018331F2B00DC53
:100D7800C2E62A00083882409F4200DDA9E0DB1B5A
:100D8800581C1F2800DCACE115001F3BDD40202863
:100D980005D040231B1A9A40531E9A411543072336
:100DA80000272B40B0E7ED08054B62072A43E4080B
:100DB8009F420FD02403250B7C05640DD4E6C04662
:100DC800FF070000FFFF7FFFFE070000C008620763
:100DD8000243E4081300234300D186E180252D0354
:100DE80025432D03C34C2D0BBEE6604654460E002A
:100DF8001700C508D8E7C04CFF1A144096E6BF4A4A
:100E0800791C11426BD122000243002F00D0DBE095
:100E1800002A00D12DE1624653461A4300D1B6E0BC
:100E28006346C51885428041544440422418230231
:100E380002D50F00B04B1C403A002800D8E76246A4
:100E4800851AA8429241534652429146E31A1A0023
:100E58004B46D21A130091461A0254D44A464C46BD
:100E68002A4300D040E60026002400257CE6A14D58
:100E7800A94500D190E00125382A00DDABE68025A0
:100E88002D042C4395E6110055462039CD40A9463E
:100E9800202A06D0402153468A1A934062461A43B4
:100EA800944665466B1E9D414B461D4312E6210044
:100EB800014300D1C4E0511E012A00D1FBE08D4D51
:100EC800AA4200D1B5E00125382900DD41E70A0032
:100ED8002FE7894CFF1A14406207E4086AE7854A3D
:100EE800914200D1E3E06346C21882428041230068
:100EF800404253441B18DD075C080723520815437A
:100F08000F002B4000E763461D1AAC45924153463B
:100F180052421C1B0E008846A41AE5E5002D00D09D
:100F280091E0002A38D180240026240356E763463E
:100F3800C5188542804154444042241801272302A1
:100F480000D4DFE6022787E66346C51AA842804137
:100F580053464042E41A0127241AC0E56207C00834
:100F68000243E40836E7110053462039CB4099463E
:100F7800202A06D0402153468A1A934062461A43D3
:100F8800944665466B1E9D414B461D4359E66207D4
:100F9800C0080243E4080DE753465A076346D808D9
:100FA80053460E000243DC0814E715002600203DD6
:100FB800EE40202A03D04025AA1A94402043421E1E
:100FC80090410500354306E6002A7CD06246534628
:100FD800C0081A4300D1FAE6620710438022E408E9
:100FE8001203144208D0D908114205D16346D80823
:100FF80053460C005B071843420FC000C008520755
:101008000243E7E6002A00D12DE76346D808534695
:101018005A070E000243DC08CCE663461D1AAC45AD
:101028009241534652421C1B0E008846A41A0137AF
:1010380055E56346D90853465A070A43DC08C9E60A
:1010480060465446D4E6C008002A00D1BFE66207CD
:1010580010438022E40812031442CDD0DD08154263
:10106800CAD16346D80853465B070E002C001843C4
:10107800C2E76346D90853465A070A43DC0899E68B
:101088006346D80853465A070E000243DC08A1E617
:10109800110027002039CF40202A03D040218A1A86
:1010A80094402043421E904105003D4351E60C0008
:1010B8000025002258E5604460459241544452425C
:1010C8000500A4183AE753465A076346D908534619
:1010D8000A43DC087EE61A001C002A4300D0ABE66F
:1010E800C1E620210025091A19E500220025014C36
:1010F8003AE5C046FF070000FFFF7FFFFE0700003C
:10110800F0B5DE46454657464E46E0B587B00092F4
:1011180001930B031B0B9B46CA0F4B000400804630
:101128005B0D029200D16AE1D44A934200D18CE16E
:101138005946420FC9000A43802109041143C200DD
:101148009046CF4A894692469A4400230024039346
:10115800009E019F3B031B0B9B467B0030005B0DF1
:10116800FD0F002B00D128E1C44A934200D177E15A
:101178005946720FC9000A438021090411438B465E
:10118800BF49F2008C4651466344CB1A9A46002365
:10119800029E6E400F2C27D8BA49A40009598F46E1
:1011A800CB464246029E039B022B16D0032B00D14E
:1011B800A6E2012B00D0DFE00022002300249046A5
:1011C8001B052343F60733434046190007B0F0BC1C
:1011D800BB46B246A946A046F0BD00220024904670
:1011E800A64BEDE72E00DFE7CB4500D2D4E100D1D6
:1011F800CFE101235B429C46444648460027E2442F
:101208005B46150E1B021D43190C2B041202009598
:101218001D0C914602910395FEF7F4FF02006A4304
:101228000B04210C804619438A4209D9009D0123E9
:10123800AC465B4261449C46E0448D4200D8FBE1E9
:10124800881A0299FEF7DEFF039A24044243090430
:10125800240C03000C43A24206D90099013B8C469A
:101268006444A14200D8E1E1A01A424612041A439C
:1012780093464B4659461B0C1D0004930B044946E4
:101288000904090C0C001B0C5C43120C6B438846C8
:1012980051436A43250CAC465B186344994203D911
:1012A800802149028C466244190C24041B04240C36
:1012B8008A181C19904202D316D1A74214D25B4651
:1012C800009D013B4F4405934F459B41AC465B4213
:1012D8006344C018854200D3A1E1824200D9F6E1F7
:1012E80000D1F1E1059B9B463C1BA742BF41009DF5
:1012F800801A7F42C01B854200D1D0E10299FEF7D7
:1013080081FF039A0B044243210C070019438A42C8
:1013180000D978E1881A0299FEF774FF039A240429
:1013280042430904240C03000C43A24200D95DE1A6
:101338004146A41A3A041A43049D13041B0C59434A
:1013480047466B439C46100C47430B0CBC44634414
:1013580068439F4203D980256D02AC4660441F0C48
:1013680009041B04090C3F185B18BC4200D202E1B7
:1013780000D1FDE001231A43434B5344002B00DC0A
:10138800AEE0510700D098E15946C90106D5594643
:101398003E4B194080238B46DB0053443C498B422B
:1013A80000DD1AE75946D208490711435A465B053A
:1013B80054028846240B5B0D02E75A46009B1A43E9
:1013C80000D17EE05B46002B00D100E1584601F0D9
:1013D8000FF9020003000B3A1D27009EBA1A1900E4
:1013E8005846D64008398840320002439346009A4E
:1013F8008A40284953448A469A440023C8E65B46F3
:101408000343994656D05B46002B00D1CDE05846A1
:1014180001F0EEF80B235B429C46020084446646CA
:101428001D239B1B260011005846DE4008398840C2
:1014380033000343994623008B409846164B0024FB
:101448009B1A9A460023039382E65A460243914622
:101458002AD100229A46022390460824039377E66D
:101468005A46009B1A430D4B9C46E244002A17D16A
:1014780002231C4300239B46023389E6FF07000032
:1014880001FCFFFF3C5D0008FF030000FFFFFFFEBB
:10149800FE070000F30300000DFCFFFF01F8FFFF4B
:1014A800032332001C4373E69A460323D9460C24CF
:1014B80003934DE6002398469A4601330424039388
:1014C80046E601231C4300239B46013360E60023C4
:1014D800802498460026924B240371E6012252424A
:1014E8000121C91A382900DD66E61F2900DCABE0B6
:1014F8001F204042C31A5846D8400300202904D070
:1015080058468849514488400243511E8A411A432B
:10151800072319000024114013420CD00F23134055
:10152800042B00D1F9E0111D91429B410A005B4256
:1015380059075B021C0BD2080A43904600233FE67A
:1015480080244B462403234209D05B46234206D11C
:101558001C4324032E009046714B240B30E6802454
:101568004B4624031C432403029E6D4B240B27E6A1
:10157800002B00D100E70098511E84466444844241
:1015880000D284E0BC4200D2AEE000D1C1E00A0043
:10159800F0E6424500D92CE64B46DC07580843469E
:1015A8005B081C434346DF072AE601F021F81523B0
:1015B8009C4684440200634620321C2B00DC2EE744
:1015C80023000838834099460023984636E701F0FF
:1015D8000FF802000300153220331C2A00DCFBE65A
:1015E80000990838814000228B4602E70099013BA8
:1015F8008C466444A14200D99AE6A24200D897E6F4
:10160800831E644494E6AC466144013F8D4200D990
:1016180080E68A4200D87DE6871E61447AE68542E4
:1016280000D05FE6B94500D95CE656E6A24200D88C
:101638001AE6831E644417E68A4200D800E6AC46E0
:10164800831E98466144FBE53748140050448240A5
:101658005B4617008340CC407A1E974123433B43A7
:101668001A005B46CB40510709D00F2111400429CD
:1016780005D0111D9142924152429B180A0019024D
:1016880000D455E7002201230024904698E50A007B
:10169800BC4200D06EE64B4500D06BE66CE6234BAF
:1016A800234A5344924500DA18E7012149420A1DAA
:1016B8008A42894149428B4466E60F211140042938
:1016C80000D161E61100F2E7BC4200D80AE6022325
:1016D8005B429C4600994F444F459B41E3448C46EE
:1016E8005B426344C018FFE54946009D48004845F1
:1016F8008941AC46494261448146023A6418C7E7C9
:1017080080245B4624031C4324039046044B240B8B
:1017180056E59945E8D30A00BDE7002308E7C04627
:10172800FF0700003E0400001E040000FF03000045
:1017380002FCFFFFF0B55746DE464E464546E0B58B
:101748001F000B031B0B16009A46CA0F4B00040020
:10175800934687B05B0D00D1D5E0BB4A934200D1D8
:10176800F8E05146420FC9000A4380210904114399
:10177800C2009146B54A8A469D18002398460293AE
:101788003C037B00FA0F3000240B5B0D009200D164
:1017980096E0AD4A934231D0720FE4002243802490
:1017A80024041443A94AF000944663445B195A1C64
:1017B8000192424600260A2A42DC5A4600994A40CB
:1017C80093464246022A32DC013A012A00D949E10D
:1017D800022E00D1CAE0012E3DD1002300240022B0
:1017E80010005A461B052343D2071343190007B0BC
:1017F800F0BCBB46B246A946A046F0BD924B264374
:10180800EB18002E00D1BBE00322414611435A4693
:10181800884600994A40802109018C462900614484
:10182800019141460A2900DD33E2934603264246E8
:1018380001279740A6213A00C9000A400F4231D03B
:10184800029E022E00D135E2032E00D1D2E1544689
:101858004846012EC1D0019A7D4B94466344002B23
:1018680000DCC0E0420709D00F220240042A05D05C
:10187800021D82428041404224181000E20106D530
:10188800744B019A1C4080239446DB006344724ADF
:1018980093426BDC6207C00864025B050243240BB9
:1018A8005B0D9DE7902189000F4263D188223A425F
:1018B80000D1D7E0009BA2469B4681460296BFE72F
:1018C8002300334300D17FE0002C00D1ADE120009C
:1018D80000F08EFE020003000B3A1D201900821A48
:1018E80030000839D0408C400443300088405B4ABF
:1018F800EB1A944663445A1C0192424600260A2A6F
:1019080000DC5AE79CE753460343994654D05346B4
:10191800002B00D177E1504600F06AFE0B235B42B2
:101928009C460200844411005046083988401D2313
:10193800804660461B1A2000D840030040460343F7
:101948009A4623008B4099460023444D9846AD1A89
:10195800029315E752460243914626D100221D0004
:101968000223924608329046029309E70024002297
:10197800354B35E7002380249B462403324B2FE761
:101988000222414611438022120194462A006244F1
:10199800884601920A2900DD52E75A46002000993C
:1019A80004004A40934602260BE70C221D0003233D
:1019B800814690460293E3E600239A46043398460C
:1019C800033B00250293DBE6424601331A432B0012
:1019D80090465A1C019242460024002001260A2AF9
:1019E80000DCEAE62CE70122D21A382A00DDF4E608
:1019F8001F2A00DC2AE11F214942CB1A2100D940C5
:101A08000B00202A05D0164A019D94466544AC4037
:101A18002043421E90411843072319000024014027
:101A280003420CD00F230340042B00D140E1031DD7
:101A38008342A4411800644261076402240BC2086F
:101A480000230A43CCE6C046FF07000001FCFFFF65
:101A5800FF030000FFFFFFFEFE0700000DFCFFFF75
:101A68003E04000049464A460904090C0D00160CBC
:101A7800020C0004000C4543AC4605007543A8461B
:101A880015000F007543009202952A00009D6F43D0
:101A980065462D0CA94647444F44B84505D915005D
:101AA800802252029046454402953D0C03956546B6
:101AB8002D043F042D0CAC463D0065440495250CCF
:101AC8002404240CAC4625007543A84665460F003F
:101AD8006943414489466743390C49446E43884504
:101AE80003D980225202904646440D0CA846350080
:101AF80045440595039D3F04A8463F0C0904C919B0
:101B080088444546039555462E04360C2F0C35005F
:101B18004543784381463800A8462D0CAA46009ACA
:101B2800504372434A445244914503D980256D027B
:101B3800A9464844150CA94645462D042D0CA8462F
:101B480065467D43120448449044A94632006546E0
:101B580062436E437C43170C3619BF19BC4203D944
:101B680080246402A446E144029C039EA446059D89
:101B780066448E428941AC4612043C04120CA218F9
:101B88006244494254184644A4464645A441824604
:101B98006442A046AA4292418C458941E244D0441D
:101BA800494252420A43A045A441824589416442C0
:101BB80049420C4341463F0CD2191219CC0D0499E5
:101BC80070020843411E884141464A44F60D5202BC
:101BD8003043490214430843D20135D50122430852
:101BE80002401343E0071843640834E6009BA2460A
:101BF8009B4681468024534624031C4324034A46BB
:101C08002E4B240BECE500F0F3FC15239C46844492
:101C18000200634620321C2B00DC84E60023994630
:101C28002300083883409A468EE600F0E1FC020063
:101C38000300153220331C2A00DC4EE60200340073
:101C4800083A0020944052E6019304E61C4B210018
:101C58009C460300019DD3406544A94019430300F5
:101C6800AB40581E834119430800D4404B0709D0A4
:101C78000F230B40042B05D00B1D8B4280414042A3
:101C880024181800230200D4D6E6012300240022D9
:101C9800A6E50F29AAD1802352461B031A42A9D0D0
:101CA8001C42A7D11C43009B02009B46034B97E5AF
:101CB8000024C1E60024014B220091E5FF07000043
:101CC8001E040000F0B54E464546DE465746E0B5D0
:101CD80085B0009001910C034F00CE0F610A009C63
:101CE800B046640F0C4300997F0DC80011001A001C
:101CF8001B039C460091019251004B0D9946019B94
:101D0800009DD90F63466A0F5B0A1343EA009446A5
:101D18009346C14A03900293914500D1CDE0012535
:101D280069404D467D1BAA468E4200D180E0002DB9
:101D380000DC35E34946002900D1DFE0974200D1B5
:101D480094E152460125382A19DC8022029B1204AC
:101D58001343029352461F2A00DDE3E15346202233
:101D68006146029DD21A9540D9400D436146914083
:101D78000A00511E8A411543029ADA40A41A451BEB
:101D8800A84280414042241A230200D43DE1640263
:101D9800640A002C00D147E1200000F029FC030070
:101DA800083B20212800CA1AD0409C4002009D40D0
:101DB80022439F4200DD77E1D81B0130091A2C002D
:101DC8008D40C4406B1E9D411300C2408B4025438B
:101DD800002714001D436B0709D00F232B40042B49
:101DE80005D02B1DAB42AD416D4264191D00230285
:101DF80000D440E1884A0137974200D101E1012629
:101E080043468649ED0821404A072A437C054D028E
:101E18002D0B640D1E4024052C43F6073443100097
:101E2800210005B0F0BCBB46B246A946A046F0BDAD
:101E3800002D00DCD0E24946002900D0D4E06146FC
:101E4800029B194300D12BE1691E012D00D1D9E174
:101E5800954200D10AE10125382917DC8A46534604
:101E68001F2B00DDE7E12022D21A029B6146934036
:101E78001D005346D940634693401A000D43511E36
:101E88008A4153461543029ADA40A4182D18854210
:101E9800804140422418230200D4B6E05E4B01374B
:101EA8009F4200D1ADE001215C4B6A081C402940EB
:101EB8000A43E507154364088DE7594A029B924691
:101EC8006246BA441A432CD08E422ED05246002A7B
:101ED80060D0002F00D1DBE063460E00029CD808DA
:101EE80062070243E4081300234300D154E280252B
:101EF8002D0325432D03484C2D0B8CE76146029B8F
:101F0800194300D1CCE029000139012D00D188E125
:101F1800954200D1AAE00125382900DD2FE78A463D
:101F280018E7012251408E42D0D15346002B00D1F0
:101F3800BEE0002F00D038E1CA462200024300D19B
:101F4800E2E15346591E012B00D10DE2324A924577
:101F580000D1D2E10127382913DC1F2900DDEEE189
:101F68002022029B521A250007009A46CC40904036
:101F78009540CF40A244421E904153462F43074309
:101F880002933D00654465459241029B52424F468B
:101F9800D41880E7234A7D1C154200D0AAE0624687
:101FA8002500029B05431A43002F00D0F5E0002DC1
:101FB80000D16BE1002A00D152E16346C51A029BA9
:101FC800E21AA8429B415B42D31A1A0200D4D5E117
:101FD80063461D1AAC4592410126029B52421C1BC6
:101FE8008846A41A0E40F6E697423FD0524601258D
:101FF800382A00DD4AE78022029B12041343029329
:102008002DE73C000025002205E707232B40002B85
:1020180000D0E2E66BE0C046FF070000FFFF7FFF4D
:1020280001F8FFFFFE070000280000F0E1FA0300B6
:1020380018331F2B00DCB4E62A00083882409F4280
:1020480000DDB9E0DB1B581C1F2800DCA0E11500EF
:102058001F3BDD40202805D040231B1A9A40531E01
:102068009A411543072300272B40D0E7C008620791
:102078000243E40837E7EA0863071A43D34BE40846
:102088009F4200D12FE72403250B7C05640DC2E68F
:10209800CA462200024358D163460E00029C0393AD
:1020A800039B5746DA08E7E7C94CFF1A144092E643
:1020B800C84D7A1C2A4200D084E022000243002F37
:1020C80000D0EFE0002A00D1E5E0624602990A4319
:1020D80000D1C5E06346C5188C46854280416444FA
:1020E80040422418230202D5B94B01371C40BA4696
:1020F8000395D5E76246851AA84292415242914615
:10210800029BE31A1A004B46D21A130091461A0290
:102118006CD44A464C462A4300D03AE600260024AE
:10212800002578E6029953460D00203AD540202B29
:1021380006D04022D21A0B00934062461A439346B7
:102148005B465A1E93411D4319E653465A1E012BFE
:1021580000D1C6E09D4EB24500D1BDE688460E00CE
:102168000125382A10DC1F2A7FDC20212500891A46
:10217800070088408D40D740D440411E8841029BCB
:102188003D431B1B054302936246551BAC459241D8
:10219800029B52424F469C1AF6E5002D00D0B7E04C
:1021A800002A00D1F0E001260E4063460298D908C3
:1021B80042070A43C40896E6854CFF1A1440620792
:1021C800E40860E781498A4200D1C9E06346C11842
:1021D80081428041029B4042E3181B18DD075C08DE
:1021E800072349080D4317002B4010E763461D1AC3
:1021F800AC4592410126029B52421C1B8846A41AF8
:102208000E40C6E56346C518029B854280419C4640
:102218004042644424180127230200D4F5E602272B
:1022280041E66346C51AA8428041029B4042E41A2F
:102238000127241AA8E5029D52462B00203AD340D4
:1022480019005346202B06D04022D21A2B00934067
:1022580062461A4393465D466B1E9D410D4315E643
:102268006207C0080243E4080DE71100270020397F
:10227800CF40202A05D040218A1A944025000543E2
:102288000395039D6A1E95413D437DE7002A00D1D1
:1022980044E701260E406346D908029B5A070A43C1
:1022A800DC08F0E6002A28D06246029FC0083A43BC
:1022B80000D1DCE6620710438022E40812031442CE
:1022C80009D0FD08154206D1634601262C00D8081E
:1022D8007B0718430E40420FC000C0085207024354
:1022E80001E663461D1AAC459241029B52421C1BF3
:1022F8000E0088460127A41A46E56346D908029BC2
:102308005A070A43DC08EEE56346029C0393C7E6D6
:10231800C008002A00D1AAE6620710438022E40818
:1023280012031442D7D0029FFD081542D3D1634649
:102338000126D8087B072C0018430E40CBE70A007B
:102348002700203AD740202905D04022521A94402D
:10235800250005430395039D6A1E95412F4310E60A
:1023680014000025002256E5029B6044994660450A
:1023780092414C4452420500A4184CE71A001C0034
:102388002A4300D0B3E6C9E6802400262403AEE53C
:1023980020210025091A17E5002200250B4C3AE5F3
:1023A800002D00D1F6E54B46DA1B9246002F00D1EE
:1023B8006FE6382A05DC80263604344388460E004A
:1023C800D1E688460E000125DEE6C046FF0700007C
:1023D800FFFF7FFFFE070000002D00D168E64B4697
:1023E800D91B002F01D18A46A7E50127382900DD2E
:1023F800C7E5802212041443AFE5C04670B5002833
:1024080016D0C317C5185D40C40F280000F0F0F8B7
:10241800104B1B1A5B055B0D0A2814DC02002E000A
:10242800153296400B22121AD5402D032D0B03E0CE
:1024380000240023002500261B052B43E407234323
:102448003000190070BD0B3885402D0300262D0B78
:10245800F2E7C0461E04000070B542024300C40FF4
:10246800FE201B0E591C550A08420CD0E021890099
:102478008C466D07120B63441B051343E407234383
:102488002800190070BD002B14D1002D1BD0280086
:1024980000F0AEF80A281CDC0B232A001B1ADA40CD
:1024A800030015339D400E4B12031B1A5B05120BDC
:1024B8005B0DE1E7002D09D0130B802212031A43AC
:1024C8006D07084BD8E700230022D5E70022054B0B
:1024D800D2E703002A000B3B9A400025E3E7C046F9
:1024E80089030000FF070000F0B54B000F035B0DE8
:1024F8003B4C450F83B07F0A5E1C2F43009001912F
:10250800CA0FC50026420BD036495C18FE2C13DDD5
:10251800FF200023C0051843D207104303B0F0BDC5
:10252800002B02D100200023F4E73D43F0D08023A4
:10253800DB03FF203B43EDE7002C14DD009BFF008D
:102548009B01581E8341690F3B430B43590741D0F8
:102558000F211940042928D00433590125D5013405
:102568000023E0B2D6E721001731DBDB80211E20F3
:1025780009043943001B1F281BDD02267642341B41
:102588000E00E6403400202804D0174884466344EF
:1025980099400D432B00591E8B412343590715D0F1
:1025A8000F2100241940042917D19B015B0AE0B2CE
:1025B800B0E70E4C1C192B00A540C340A140681E73
:1025C800854129430B4300245907C1D19B010020B1
:1025D8005B0A9FE7DB08E0B29CE70433E5E7C04607
:1025E800FE07000080FCFFFFA2FCFFFF82FCFFFF4C
:1025F8001C2101231B04984201D3000C10391B0A2B
:10260800984201D3000A08391B09984201D30009EE
:10261800043902A2105C40187047C0460403020245
:1026280001010101000000000000000010B514C9FC
:1026380014C010BD10B508301CC91CC010BD07233C
:10264800837600230383704710B50400837E043B20
:10265800DAB2082A08D893005B4AD3589F46036821
:102668001B689847012800D010BD012323756379A2
:102678006375002B04D10833A376E388E382F3E77C
:102688000622A276013B6375EEE7437D002B04D159
:1026980008338376C388C382E6E7013B4375E3E7E3
:1026A800C38A002B0AD109338376C368007D0021D1
:1026B8009847E388E38200232383D5E703681B68F0
:1026C800984700281BD1207D2379984205D063794B
:1026D800002B0FD10A33A376C6E7A368984763791E
:1026E800002B02D10733A376BEE7013B63750C23A9
:1026F800A376B9E7013B63750423A376B4E7E38ABD
:10270800013BE382B0E703681B68984700280ED1B5
:102718002369218B207D98476379002B02D10733E9
:10272800A376A1E7013B63750B23A3769CE7E38AB5
:10273800002B09D1E368207D218B013189B22183E7
:102748009847E388E3828FE7013BE3828CE7437D88
:10275800002B02D10733837686E7013B437583E775
:10276800437D002B04D10A338376C388C3827BE779
:10277800013B437578E703681B689847012808D030
:10278800E38A002B13D1A368207D98470723A376FB
:102798006AE76379002B02D10833A37664E7013B2B
:1027A80063750623A376237D013323755CE7013B1C
:1027B800E38259E7437D002B02D10733837653E741
:1027C800013B437550E7C0467C5D0008012800D0F6
:1027D8007047024B01221A70FAE7C0463600002003
:1027E800012800D070476329FCD9024B01221A70D6
:1027F800F8E7C04635000020012800D070471D29A1
:10280800FCD8024B01221A70F8E7C04636000020B7
:1028180010B500F093F9013843425841C0B210BDD9
:1028280010B586B0104B114A1A6004A91E224A71CD
:10283800143ACA80083A0A7104930D4B01930D4B60
:1028480002930D4B03930D4C2000FFF7EFFE01A9F7
:102858002000FFF7EFFE2000FFF7F1FE084B0122F2
:102868001A7006B010BDC046540000201928000890
:10287800D5270008E92700080128000838000020AB
:102888003400002010B50248FFF7DEFE10BDC04638
:102898003800002000B585B00C22002101A803F003
:1028A80010FA3148314B03608023DB054360002375
:1028B8008360C360802212060261082242610376A7
:1028C80043768376073AC261202142544362836289
:1028D8002B3283548022520102630522426337322D
:1028E8008354C36401F072F800282BD1204B019364
:1028F800012302931C4801A901F0DEF9002824D124
:102908001C4B0193184801A901F0D6F900281FD1E2
:10291800194B0193144801A901F0CEF900281AD1E6
:10292800164B0193104801A901F0C6F9002815D1EA
:10293800134B01930C4801A901F0BEF9002810D1EE
:1029480005B000BD00F05AFAD0E700F057FAD7E713
:1029580000F054FADCE700F051FAE1E700F04EFA33
:10296800E6E700F04BFAEBE7B40000200024014052
:102978001000001020000014001000B0002000B467
:102988000000014010B588B004001422002103A8FB
:1029980003F097F922681E4B9A4201D008B010BD87
:1029A8001C4B1A6C802149030A431A641A6C0A40AA
:1029B8000192019A596B0122114359635B6B1A40CA
:1029C8000292029B144B039303230493A02003A9B0
:1029D800C00501F04BFE1148114B0360052343600D
:1029E80000238360C36080220261803242618022BA
:1029F800D2008261C361036201F02CFD002803D17B
:102A0800064B23659C62C9E700F0F8F9F8E7C04671
:102A1800002401400010024030100000580000203F
:102A280008000240014B1B6858637047F001002002
:102A3800014B1B68586370475801002010B5431EAE
:102A48009841C2B28021A0200901C00501F0CFFE43
:102A580010BD0000014B1B6898637047F00100200F
:102A6800034A1368D862D060400858637047C0466C
:102A78003C02002010B500280FD000F0E5FD0C4BFB
:102A88001888FFF7EDFF0B4C0021200002F0D8FE5C
:102A98000021200002F0CEFF10BD064C00212000CE
:102AA80003F034F80021200002F05CFFF4E7C04690
:102AB800100000203C02002010B5124A13680133B0
:102AC8001360114B1B78002B0FD11049FDF7C6FB83
:102AD800002800D110BD0020FFF7CCFF0A4B0122CF
:102AE8001A70084B00221A60F4E70949FDF7A2FBA7
:102AF8000028EFD00120FFF7BDFF034B00221A701A
:102B0800E8E7C04618010020000000200AD7A33CCF
:102B18006F12033C10B5002806D08021012209025B
:102B2800054801F064FE10BD802100220902024818
:102B380001F05DFEF7E7C0460008005010B5A02080
:102B48000121C00501F04CFE10BD000010B5802128
:102B5800014801F045FE10BD0004005010B5A0204A
:102B68000421C00501F03CFE10BD000010B5074B64
:102B7800074A9A610020FFF7CDFF012001F03EFED1
:102B8800082001F03BFE01F051FE10BD007000402E
:102B98002B00010000B583B0094A916B012319434A
:102BA8009163926B13400193019B0022002109203D
:102BB80001F0E8FB092001F0E9FB03B000BDC046C5
:102BC80000100240F0B5DE4657464E464546E0B591
:102BD80089B01422002103A803F073F8334B5A6B11
:102BE80002273A435A635A6B3A400092009A5A6B4A
:102BF800042188460A435A635A6B0A400192019A93
:102C08005A6B01252A435A635B6B2B400293029B44
:102C180080231B029B46264B9A46002259461800E1
:102C280001F0E5FD80231B019946A026F605002248
:102C38001900300001F0DBFD802303930024049485
:102C4800059703A91B4801F011FD5B460393049502
:102C58000594069403A9504601F008FD03950494D1
:102C6800059703A9300001F001FD0A23039304949A
:102C7800059503A9300001F0F9FC43460393049439
:102C8800059403A9300001F0F1FC4B460393049529
:102C98000594069403A9300001F0E8FC09B0F0BCE3
:102CA800BB46B246A946A046F0BDC0460010024049
:102CB800000800500004005010B50A4B1B78002B88
:102CC80000D110BD00F050F9FFF7DCFD00F070F9FD
:102CD80000F01AFA00F062FB03490448042201F0EC
:102CE800A1F9EEE73400002034010020B4000020F0
:102CF80010B50268034B9A4200D010BD00F08EFB5D
:102D0800FBE7C04600200040F8B5324B1888FFF7B3
:102D180075FB0022304BFEF70DFD06000F002F4D0E
:102D2800E88880B2FFF76AFB02000B003000390028
:102D3800FEF7E6F9FFF7D8FB294CE060E668A888BB
:102D480080B2FDF72DFE311CFDF7ECFCE62189056C
:102D5800FDF7E8FCA060E668288880B2FDF720FE51
:102D6800311CFDF7DFFCE6218905FDF7DBFC011CC2
:102D7800FDF788FA2060E668688880B2FDF710FEE3
:102D8800311CFDF7CFFCE6218905FDF7CBFC60601F
:102D9800E668288980B2FDF703FE311CFDF7C2FC06
:102DA800E6218905FDF7BEFC2061A068FFF754FB0A
:102DB8000C4A0D4BFEF786FF0C4A0D4BFEF7A0F9A7
:102DC80000220C4BFDF738FEFFF78EFB0A4B18600C
:102DD800F8BDC046AA75FF1F000008403401002056
:102DE8002001002052B81E85EB51E83F7B14AE4706
:102DF800E17A643F00003E401C01002072B6FEE705
:102E080000B593B03422002105A802F05AFF102221
:102E1800002101A802F055FF8020800001F018FD74
:102E280002230593FE3308930023099340220A9254
:102E38000C9305A801F036FD00280DD10723019356
:102E48000023029303930493002101A801F0D8FF03
:102E5800002803D113B000BDFFF7D0FFFFF7CEFF66
:102E680010B500F08DFD1C4B1C4A9A61012001F041
:102E7800D3FC082001F0D0FCFFF7C2FFFFF7A2FE49
:102E8800FFF788FEFFF706FD00F0DEFB00F060FCB0
:102E980000F0C8FC00F002FB114C0021200002F0F9
:102EA800CFFC0421200002F0CBFC0E48002102F0E8
:102EB800C7FC0D4802F0B6F90C4B1A68516C802318
:102EC8001B020B4353640A4801F054F90120FFF731
:102ED80021FEFFF7A5FCFEE700700040000101009D
:102EE800F001002058010020A40100203C0200202D
:102EF800B400002082B00A4B196C012211431964F6
:102F0800196C0A400092009ADA6B802149050A433D
:102F1800DA63DB6B0B400193019B02B07047C0463C
:102F280000100240FEE7FEE77047704710B500F05A
:102F38003BFDFFF7C1FE10BD10B5024801F030FBA4
:102F480010BDC0465800002010B5024802F0A4F990
:102F580010BDC046A4010020024B802212059A60D1
:102F68007047C04600ED00E010B5A0200821C0055C
:102F780001F036FC002813D11024A0200221C0053E
:102F880001F02EFC434258412043064B1870FFF7CE
:102F9800DDFD054B1870FFF7E1FD044B187010BDFF
:102FA8000024EAE7500100204F0100204E010020D4
:102FB80010B54F4B1A78062A26D893004D4AD35895
:102FC8009F464D4B1B78002B03D1494B01221A70A9
:102FD8001AE0012B05D0102B16D1454B03221A708D
:102FE80012E0434B05221A700EE0444B1B889BB23B
:102FF800002B0AD0414A1388013B9BB213803F4BF8
:10300800188880B2FFF714FD10BD394B02221A70E0
:10301800F5E7394B1B78012B05D0102BF4D1344B35
:1030280003221A70F0E7324B05221A70ECE7344B92
:1030380001221A702E4B03321A70E5E7304B1B78C9
:10304800012B16D02D4B1B889BB2002B21D02B4A6D
:103058001388013B9BB21380284B188880B2FFF776
:10306800E7FC254B1B78002B17D1214B01221A7046
:10307800CAE7224B1B889BB2224A934205D81F4AB3
:10308800138801339BB21380E6E71D4B00221A70A8
:10309800E2E71B4B01221A70DEE7012BB4D1144B77
:1030A80005221A70B0E7154B1B889BB2154A93424C
:1030B8000AD8124A138801339BB213800F4B188821
:1030C80080B2FFF7B5FC9FE7094B06221A70F5E7B7
:1030D800094B1B78002B03D1054B01221A7093E78B
:1030E800102B00D090E7024B03221A708CE7C046E1
:1030F80054010020E05D0008500100204C01002030
:1031080009000020E603000010B58E4B1B688E4AAC
:10311800934206DC8D4A1278052A02D0894A013387
:1031280013608A4B1A78072A06D89300884AD3581E
:103138009F46864B01221A70864B1888FFF772FC4F
:10314800854B1888FFF786FC10BD844B1B78012B34
:103158000CD0834B1B78012BEED17C4B07221A70C5
:103168007E4B00221A707E4B1A70E5E7774B0222DD
:103178001A707C4800F0FEFF784B00221A70784BDA
:103188001A70D9E7784B1B78012B0DD0774B1B7839
:10319800002B1BD0764B05221A80764B5F321A60C3
:1031A8006A4B5E3A1A70C7E7664B1A68724B9A42C6
:1031B800ECDD664B05221A706E4B704A1A60704B34
:1031C80001221A706F4B00221A80B5E75F4B032269
:1031D8001A70684B694A1A60694B01221A705E4B73
:1031E800694A1A805B4B1A800120FFF727FCA3E786
:1031F8005A4B1B78012B0ED05E4B1C68002C0AD052
:103208005A4B1B78012B06D0604B18686049FDF7B4
:1032180011F8002809D0564B05221A80554B5F3209
:103228001A604A4B5E3A1A7086E7524B013C1C60A2
:1032380082E7564B5868FFF73FFC514B1B78012B30
:103248002DD0444B1B88002B36D0424A033B1380B9
:10325800464B1B78002B33D13F4B4B4A1A80012039
:10326800FFF7ECFB434B1B68002B0BD03B4A127853
:10327800012A07D03C4A1278002A03D0314A126842
:10328800002A24D13A4B05221A803A4B5F321A6041
:103298004048FFF711FC2D4B06221A704CE72D4BC6
:1032A8001B883D4A934203D82A4A03331380CFE749
:1032B800334B00221A70CBE7314B01221A70C7E753
:1032C800254B00221A800020FFF7B8FBCAE72949DE
:1032D800013B0B601B4B013A1A602DE71E4B002285
:1032E8001A800020FFF7C6FB0020FFF7A7FB214B41
:1032F8001B68002B1ED11E4A1388013B9BB213800A
:10330800DB0713D5134B204A1A801A4B64221A6024
:10331800174B1B88002B00D00EE70C4B01221A70AC
:103328000E4B00221A700E4B1A7005E7094B00224B
:103338001A80EAE70F4A013B1360E9E7034B0122D1
:103348001A70F9E60C000020DF93040053010020F6
:10335800FC5D0008420100204401002036000020E6
:1033680035000020B40000204E0100204F0100204D
:10337800400100204801002030750000E09304005F
:103388000800002046010020E7030000200100207B
:10339800000060406666663FE603000010B5184B03
:1033A8001B78012B0BD0022B27D0002B00D010BD8F
:1033B800144B154A1A80124B01221A70F7E7114B69
:1033C8001B88002B15D0114B1B78022B07D00D4BF7
:1033D8000D4A1A800B4A1388013B1380E7E70C4B10
:1033E8001B78012BF3D10B4B1A680B4B9A42EED189
:1033F800F0E7034B02221A70D9E7FFF7B7FBD6E7CD
:10340800520100203E010020102700005401002036
:10341800530100200C000020E093040010B51D4B60
:103428001B78012B10D0022B21D0002B00D010BD0F
:10343800194B7E22FF321A80164A01211170188812
:1034480080B2FFF70DFBF2E7134A138801339BB2F2
:103458001380C3225200934203D90E4B853AFF3A98
:103468001A700D4B188880B2FFF7FAFADFE70A4A9C
:103478001388013B9BB21380BA225200934203D2B5
:10348800044B743AFF3A1A70034B188880B2FFF75E
:10349800E7FACCE7510100201000002010B50948D8
:1034A800094B03600F23436000238360074AC2600F
:1034B8000361836101F0E8FF002800D110BDFFF728
:1034C8009DFCFBE7A4010020002000400F2700001E
:1034D80000B585B00368204A934213D01F4A93422F
:1034E8001CD01F4A934223D01E4A934214D11E4B2C
:1034F8001A6C8021C9020A431A641B6C0B4003939F
:10350800039B09E0184B1A6C802109010A431A64CD
:103518001B6C0B400093009B05B000BD124AD16B99
:1035280002231943D163D26B13400193019BF3E744
:103538000D4B1A6C802109020A431A641B6C0B405C
:103548000293029B00220021132000F01BFF13208E
:1035580000F01CFFE0E7C046002C014000040040DA
:1035680000200040004801400010024030B58BB0F8
:1035780004001422002105A802F0A3FB23682D4AA9
:10358800934207D02C4A93421AD02C4A93423DD0FA
:103598000BB030BD2A4A516B012319435163526B5A
:1035A80013400193019BC0235B0005937F3BFF3BC6
:1035B80006930993A02005A9C00501F057F8E7E78D
:1035C8001F4B5A6B012422435A635A6B22400292C2
:1035D800029A5A6B02252A435A635B6B2B4003936A
:1035E800039B4023059306950994A02005A9C005CF
:1035F80001F03CF8202305930695002307930893D0
:10360800099405A90F4801F031F8C1E70C4A516B3C
:10361800022319435163526B1A400492049A802280
:10362800920005920693099305A9064801F01EF831
:10363800AEE7C046002C01400004004000480140AD
:10364800001002400004005000B59DB01022002177
:1036580018A802F036FB0C22002115A802F031FB55
:103668001C2200210EA802F02CFB3422002101A804
:1036780002F027FB3448354B036000234360836026
:103688009022FF32C26003614361836101F0FCFE56
:10369800002846D180235B0118932B4818A902F013
:1036A8003DF8002840D1284801F01EFF00283ED1EF
:1036B8000023159316931793234815A902F064FA6B
:1036C800002837D160230E9367330F93002310939C
:1036D80011931293139314931B4800220EA901F01F
:1036E8006FFF002829D1002301930293039301223D
:1036F80004920593802292010692079308930993F6
:10370800802292040A920B930C930D930E4801A900
:1037180002F072FA002813D10B48FFF727FF1DB0FB
:1037280000BDFFF76BFBB5E7FFF768FBBBE7FFF7EB
:1037380065FBBDE7FFF762FBC4E7FFF75FFBD2E776
:10374800FFF75CFBE8E7C0463C020020002C014084
:1037580000B58FB0102200210AA802F0B2FA0C229C
:10376800002107A802F0ADFA1C220021684602F0E9
:10377800A8FA2948294B0360002343608360284A3C
:10378800C2600361836101F07FFE002831D180238C
:103798005B010A9320480AA901F0C0FF00282BD139
:1037A8001D4801F0A1FE002829D1002307930993A1
:1037B800194807A902F0E8F9002823D160230093EB
:1037C800002301930293049313480022694601F0F1
:1037D800F7FE002819D1022302930F4804226946F4
:1037E80001F0EEFE002813D10B48FFF7BFFE0FB023
:1037F80000BDFFF703FBCAE7FFF700FBD0E7FFF7C1
:10380800FDFAD2E7FFF7FAFAD8E7FFF7F7FAE2E7A7
:10381800FFF7F4FAE8E7C046F00100200004004092
:10382800E703000000B595B01C2200210DA802F0A6
:1038380048FA34220021684602F043FA2248234B12
:103848000360002343608360214AC26003614361CF
:10385800836101F019FE00282AD11B4801F044FEBB
:10386800002828D160230D9300230E930F93109303
:10387800119312931393144800220DA901F0A0FE8E
:1038880000281BD100230093019302930393049310
:1038980080229201059206930C930B48694602F028
:1038A800ABF900280DD10848FFF760FE15B000BD40
:1038B800FFF7A4FAD1E7FFF7A1FAD3E7FFF79EFADB
:1038C800E0E7FFF79BFAEEE75801002000480140C7
:1038D800E70300000D488546FFF73EFB0C480D49FD
:1038E8000D4A002302E0D458C4500433C4188C4253
:1038F800F9D30A4A0A4C002301E013600432A242B9
:10390800FBD302F0E7F9FFF7ABFAFEE7002000204F
:103918000000002018000020005F000818000020A8
:103928008C020020FEE7000010B50400114B197846
:10393800002901D1012010BDFA208000FCF7DCFB32
:1039480001000D4B1868FCF7D7FB00F02BFD002891
:103958000DD1032C01D90120EDE70130002221000F
:10396800404200F00FFD054B1C600020E3E70120FA
:10397800E1E7C046120000200400002014000020E7
:1039880010B5084A116880235B000B4313600320BD
:10399800FFF7CAFF041E02D00124200010BDFFF764
:1039A800A9FAFAE700200240034B1B78034A116882
:1039B8005B1813607047C046120000208802002080
:1039C800014B18687047C0468802002030B583B0A4
:1039D800040000230193002800D106E1836D002B29
:1039E80013D023689A68D2001CD49968804A114081
:1039F800802252050A439A607E4B18687E49FCF77C
:103A08007BFB01304000019009E0FEF7BBFF00237B
:103A1800E3655422A354E4E7019B013B0193019B16
:103A2800002BF9D123689A68D20000D59DE0A26DD9
:103A380010210A43A265E26D0F390A43E2650120AD
:103A48009A6804210D001540114200D00125A26D8D
:103A5800D20600D5C2E0002D00D0BFE0A26D6749B4
:103A68000A400631FF310A43A2659A68D20752D448
:103A7800A268217E89030A43617EC9030A43A57EA1
:103A880069030A43216B002901D0802149010A43B7
:103A9800E1680A432169002969DB802189030A4317
:103AA8002C21615C49000A432021615C012961D015
:103AB800616A002905D0E0256D002940A56A2943DF
:103AC8000A43D9684E4D29400A43DA6063689B0F60
:103AD8009B07E26C1A433C21615C012959D021689B
:103AE8000B69484D2B4013430B616368C0221206D3
:103AF800934210D08022D20593420CD08022120625
:103B0800934208D040490A68404D2A40F025AD0349
:103B18002B4013430B602168636B4A690725AA434E
:103B280013434B612168A26B4B696935AB431201A2
:103B380013434B612369002B35D12268916A103BEE
:103B48000B43936223685A6907231340626B9A42B6
:103B58003BD0A36D12229343023A1343A365E36D4E
:103B68000F3A1343E36501203DE0002068E7490070
:103B7800490894E7002D03D1802149020A4397E7B9
:103B8800A16D20252943A165E16D1F3D2943E1650C
:103B98008EE7216C0B43616C0B43A16C0B43134301
:103BA80001221A439BE7802292039342CAD12168DB
:103BB8008B6AE369013B9B001C221A4010235B427D
:103BC8009340226E13438B62BCE70023E365A36D29
:103BD80003229343023A1343A36504E0A36D102222
:103BE8001343A365012003B030BD0120FBE7C046A5
:103BF800E8FFFF6F04000020400D0300FDFEFFFFFB
:103C08000102DEFF02FCFF1F08270140FFFFC3FF80
:103C1800704710B5806AFFF7FBFF10BD704710B5FD
:103C2800806A836D402213438365C36D3C3A134316
:103C3800C365FFF7F3FF10BD10B50300806A826DFE
:103C4800502111422AD1826D80239B001343836542
:103C58000368D968C0221201114213D1827E002A5A
:103C680010D11A6812070DD59A6852070DD45A68F0
:103C78000C218A435A60836D0E4A13400432FF3286
:103C880013438365FFF740F810BD836D202213436B
:103C98008365C36D1F3A1343C365F3E7826DD2068C
:103CA80004D4026D526B18009047EDE7FFF7B6FF9A
:103CB800EAE7C046FEFEFFFFF0B583B0040000232C
:103CC800019305695433C35C012B00D12FE15423C0
:103CD8000122C25400688368033216001E401A424B
:103CE80009D0A36D1C321343A3650120542300227D
:103CF800E25403B0F0BD4B68022B00D1D5E080221E
:103D08001206954225D08B4A954222D0226E1F2753
:103D18001F400F25BD40AA430B685D032FD19B0EA2
:103D28001F261E40BE40324322664D68AB08013351
:103D3800E269934213D80E68826A1F231D40103B24
:103D48001F00AF40BA43B60E3340AB401343836203
:103D580005E00B68826A5B035B0B13438362206890
:103D68000B688D6842691B029A432B40724D2B40A9
:103D7800134343610B68002B4FDB0020B6E7DD07D8
:103D8800D0D49D0727D45D0727D41D0727D4DD0687
:103D980027D49D0627D45D0627D41D0627D4DD0524
:103DA80027D49D0527D45D0527D41D0527D4DD0418
:103DB80027D49D0427D45D0427D41D0427D4DD030C
:103DC80027D49D0327D48025ED021E002E402B42C8
:103DD800A8D01226A6E70126A4E70226A2E7032612
:103DE800A0E704269EE705269CE706269AE707260D
:103DF80098E7082696E7092694E70A2692E70B260D
:103E080090E70C268EE70D268CE70E268AE70F260C
:103E180088E7102686E7112684E7484A1168E022D9
:103E280052040A404648834207D04648834222D07B
:103E3800454883422CD0002058E70802F5D4802357
:103E48001B0413433D490A684048024013430B6072
:103E58003F4B18683F49FCF74FF9013043001B18E6
:103E68009B00019302E0019B013B0193019B002B06
:103E7800F9D100203AE7C801DAD480235B04134360
:103E88002E490A683148024013430B6000202DE791
:103E980049024AD48023DB03134328490A682B4884
:103EA800024013430B60002020E780231B069D423D
:103EB80002D0204B9D4205D10B68826A5B035B0BE5
:103EC8009A4382620B68002B01DB00200EE71B4A35
:103ED80012681B498B4207D01A498B420FD01A49E6
:103EE8008B4217D0002001E7A0235B041A40134936
:103EF8000B68164803401A430A600020F6E6C02300
:103F08001B041A400D490B68104803401A430A6005
:103F18000020EBE6C0235B041A4008490B680B48F5
:103F280003401A430A600020E0E60020DEE6022093
:103F3800DFE6C0460400008000FFFF0708270140B5
:103F4800001000B0004000B8002000B4FFFF3FFEA2
:103F580004000020400D030030B583B004000023A6
:103F6800019303689A68D2074FD49968284A114286
:103F780011D19A6827490A4001210A439A60264BC1
:103F88001B681B0217D5254B18682549FCF7B4F8A0
:103F9800013001900CE0836D102213438365C36DDB
:103FA8000F3A1343C365012030E0019B013B0193A5
:103FB800019B002BF9D1637E012B01D1002025E064
:103FC800FFF7FEFC050023681A68D2071BD49A681D
:103FD800D20705D49A680F490A4001210A439A601A
:103FE800FFF7EEFC401B0228EDD923681B68DB07AE
:103FF800E9D4A36D10221343A365E36D0F3A13436D
:10400800E365012002E0002000E0002003B030BD9D
:1040180017000080E8FFFF7F082701400400002008
:10402800400D030070B504000D0016000268936887
:104038005B0747D45423C35C012B45D0012354218B
:104048004354D1680B420DD19368DB0705D59368BB
:104058001E490B4002210B4393602268D36801215B
:104068000B43D3602000FFF777FF00282BD1A26D08
:10407800174B1A4080235B001343A3650023E365B5
:10408800226D1449D162226D13491163226D1349BF
:10409800516322681C2111605422A354226853687A
:1040A8000C390B43536021684031206D33002A00DE
:1040B80000F028FA2268936804490B4004210B4356
:1040C800936000E0022070BD0220FCE7E8FFFF7F5C
:1040D800FEF0FFFF413C00081B3C0008273C00089D
:1040E80070B5040003689A68022108001040114264
:1040F80000D001209A68D20735D5002835D19968B3
:1041080005220A40012A09D0A36D10221343A36592
:10411800E36D0F3A1343E365012025E09A681449DB
:104128000A4002210A439A60236803221A60FFF7B3
:1041380047FC050023689B68DB0712D5FFF740FCA6
:10414800401B0228F6D923689B68DB07F2D5A36DCC
:1041580010221343A365E36D0F3A1343E36501206F
:1041680002E0002000E0002070BD0020FCE7C0460F
:10417800E8FFFF7FF0B583B00400002301935433B8
:10418800C35C012B00D1A2E001265423C654FFF7DB
:10419800A7FF050023689A6831001140164209D02C
:1041A800A36D10221343A36554230022E254280070
:1041B80003B0F0BDA26D474802400630FF3002430D
:1041C800A265DE68444A1640DA6844480240DA606C
:1041D800080005E0B4229A587F231340C018013123
:1041E80007291CD82768BA683D4B1A40183313436F
:1041F800BB6023689A68002AECDA019B01330193BB
:10420800019A384B9A42F4D9A36D12229343023A89
:104218001343A36554230022E2540125C7E7FBF7A3
:104228006BFF226893682E490B4001210B43936072
:10423800226811698023DB05994217D22A4B1B6833
:10424800F02189030B40E02149038B420ED39B0CDC
:10425800033B012199400091009B5B08009302E019
:10426800009B013B0093009B002BF9D1B4215358CC
:104278007F27BB43184350502268936818490B4066
:1042880002210B439360FFF79BFB070023689A68A2
:10429800D20709D4DA683243DA60A36D0322934364
:1042A800023A1343A3657FE7FFF78AFBC01B022886
:1042B800ECD923689B68DB07E8D5A36D102213436C
:1042C800A365E36D0F3A1343E36501256FE7022504
:1042D8006DE7C046FDFEFFFF03800000FC7FFFFF87
:1042E800E8FFFF7FFFF102000827014070B50028B2
:1042F80011DB8308134DC0339B005C590322104027
:10430800C000FC3216008640B44389010A4082404E
:1043180022435A5170BD0F230340083B9B080633C4
:104328009B00094A944663445C6803221040C0001D
:10433800FC3215008540AC4389010A408240224383
:104348005A60E7E700E100E000ED00E00138802373
:104358005B0498420FD2094A50600948036A1B025D
:104368001B0AC02109060B4303620023936007332D
:104378001360002070470120FCE7C04610E000E011
:1043880000ED00E010B5FFF7B1FF10BD002805DB18
:104398001F22024001239340014A13607047C04620
:1043A80000E100E010B5FFF7D1FF10BDF0B5846C57
:1043B800C56C6560046D002C02D0446D856D656028
:1043C8000B4F7C68056C1C262E400125B5402C43FC
:1043D8007C60046863608368102B04D0036899606C
:1043E8000368DA60F0BD03689A600368D960F9E78A
:1043F8000000024010B50400036C9B08094A94466B
:1044080063449B0043640368FF2018400838142164
:10441800FBF772FE044BA3641F2318401E3B834026
:10442800E36410BD008200108008024042683F2308
:104438001340064A9A1892000265054A4265013BF4
:1044480003221A4001239340836570473F8200107E
:104458004009024070B5041E4DD00568274BE81886
:104468001421FBF749FE8000206425230222E25430
:104478002B68234A13402B6021680A68A368E06808
:1044880003432069034360690343A0690343E06968
:104498000343206A034313430B602000FFF7AAFF7E
:1044A800A2688023DB019A4218D06168626C3F23BE
:1044B8000B401360A36CE26C5A606368013B032BEA
:1044C8000FD9002323656365A3650023E3632522D1
:1044D8000121A154013AA354002070BD0023636058
:1044E800E3E72000FFF7A2FF236D00221A60636D47
:1044F800A26D5A60E9E70120EFE7C046F8FFFDBF6B
:104508000F80FFFF70B504002420205C012845D0EF
:104518002420012525540130205C012806D0802361
:10452800E3635C3B0022E254012070BD2430013576
:1045380025540020E063256828680126B0432860D8
:104548002000FFF733FF236B002B1CD02268136871
:104558000E210B431360626C1368DB0304D51168EA
:1045680080235B000B431360236D002B04D0196874
:10457800802252000A431A602268136801210B4303
:1045880013600020D1E72268136804218B4313606D
:104598002268136806310B431360DCE70220C4E786
:1045A80070B5314B196804682568026C1C231340E8
:1045B80004229A40114216D06A0714D523689B0634
:1045C80003D42368042293432360274C6368026C56
:1045D8001C21114004228A4013436360036B002BA3
:1045E80000D0984770BD02229A4011421CD0AA07F9
:1045F8001AD523689B0606D423680A2293432360AE
:104608002523093AC254184C6368026C1C211140D6
:1046180002228A401343636024230022C254C36ADF
:10462800002BDFD09847DDE708229A401142D9D005
:104638002D07D7D523680E22934323600A4C62685E
:10464800036C1C21194001231D008D402A43626020
:10465800C3632522835423330022C254436B002BA7
:10466800C0D09847BEE7C04600000240F0B500231E
:1046780059E086685F000324BC40A643CC68BC4070
:1046880034438460446894434E68360901223240BA
:104698009A402243426056E0DE080836B600375892
:1046A80005321A4092000F249440A7430C699440A5
:1046B80022003A43325059E0032600E00026A64083
:1046C80034003C43424E1832920094513768EA4312
:1046D8003E00AE434C68E40201D53E002E433C4CFC
:1046E800266067683E0016404C68A40201D53E006B
:1046F8002E43374C66608426A7593E0016404C6806
:10470800A40301D53E002E43314C8427E651802670
:10471800A65932404C68E40301D52A0032432C4D97
:1047280080242A5101330C682200DA404ED001223D
:104738009A40250015401442F4D04E6803243440B2
:10474800013C012C95D94C6803222240032A08D049
:10475800C4685E000322B24094438A68B240224390
:10476800C2604C6803222240022A95D004685E0089
:1047780003221700B740BC434F683A40B240224377
:1047880002604C68C02292021442CBD09A081400EE
:104798001834A4000E4EA75903241C40E4000F2629
:1047A800A640B743A026F605B04287D0094EB042CE
:1047B80008D0094EB04207D0084EB04200D17BE77E
:1047C80005267CE701267AE7022678E7F0BDC04691
:1047D800001802400004005000080050000C00506F
:1047E80003690B4201D0012070470020FCE7002A32
:1047F80001D0816170478162FCE700000549CA6801
:104808002B2303409A43000A0243CA608A68134371
:104818008B6070470070004003498B682B22024070
:1048280093438B607047C04600700040064A136887
:1048380007218B4304390B431360044A1369013180
:104848000B43136130BF70470070004000ED00E07B
:1048580010B5104A136810490B40034313608023B6
:104868009B00984201D0002010BD0C4B1B685800DB
:10487800C01840000A49FBF73FFC0130054B5B6953
:104888005B0503D5002803D00138F7E70020EBE7E4
:104898000320E9E700700040FFF9FFFF0400002053
:1048A80040420F0070B582B0041E00D129E20368AF
:1048B800DB0739D5C14A916838230B40D1680322F8
:1048C8000A40102B26D0082B26D06368802252027B
:1048D80093427FD0A022D202934200D181E0B74B0D
:1048E8001A68B7490A401A601A68B6490A401A6035
:1048F8006368002B00D180E0FFF762F80500AF4B3A
:104908001B689B0310D4FFF75BF8401B6428F6D99B
:104918000320F7E1032AD6D1A84B1B689B0303D5D4
:104928006368002B00D1EFE123689B0731D5A34AC8
:10493800916838230B40D16803220A40102B6AD0B3
:10494800002B6BD19D4A1268520503D5E268002AF4
:1049580000D1DBE1994842689B490A406169090234
:104968000A434260002B0DD1036898490B40216926
:104978000B4303600368DB0A07221A40944BD340B9
:10498800944A1360944B1868FEF7CEFF002800D0B5
:10499800BEE123681B0700D481E0884B9A6838235E
:1049A8001340182B73D0A369002B00D1B4E0834ABD
:1049B800136E01210B431366FFF702F805007F4BC6
:1049C8001B6E9B076BD4FEF7FBFF401B0228F6D932
:1049D800032097E1794A116880235B020B43136037
:1049E80086E7764B19688022D2020A431A60196852
:1049F800802252020A431A607AE7FEF7E1FF0500B7
:104A08006E4B1B689B038FD5FEF7DAFF401B6428AB
:104A1800F6D9032076E1022A92D193E7E368002BC6
:104A280022D0664A136869490B4021690B43136019
:104A3800116880235B000B431360FEF7C1FF05007C
:104A48005E4B1B685B0506D4FEF7BAFF401B0228C5
:104A5800F6D9032056E159494B685B4A134062690D
:104A6800120213434B6094E7544A13685B490B40A6
:104A78001360FEF7A5FF0500504B1B685B0588D542
:104A8800FEF79EFF401B0228F6D903203AE14B4B64
:104A98001B6E9B0703D5A369002B00D13AE123685D
:104AA8005B0700D4A2E0454B9A6838231340202BBB
:104AB80045D0424BDB6BDB004AD4404BDA6B80219C
:104AC80049050A43DA63DB6B0B400193019B01251F
:104AD800434B1B68DB053DD5A368012B4ED0052B46
:104AE80052D0364BDA6D01218A43DA65DA6D03312B
:104AF8008A43DA65A368002B50D0FEF761FF0600F1
:104B08002E4BDB6D9B076FD4FEF75AFF801B354B8E
:104B18009842F5D90320F5E0284A136E01218B430A
:104B28001366FEF74DFF0500244B1B6E9B07B6D599
:104B3800FEF746FF401B0228F6D90320E2E01F4B90
:104B4800DB6D9B0752D5A368002B4FD10120D9E01C
:104B58000025BDE7224A116880235B000B431360E0
:104B6800FEF72EFF06001E4B1B68DB05B4D4FEF7CC
:104B780027FF801B0228F6D90320C3E00F4AD36D14
:104B880001210B43D365B5E70C4BDA6D04210A43C9
:104B9800DA65DA6D03390A43DA65ABE7FEF710FF29
:104BA8000600064BDB6D9B071ED5FEF709FF801B31
:104BB8000C4B9842F5D90320A4E0C04600100240EF
:104BC800FFFFFEFFFFFFFBFFFF80FFFFFFC7FFFFA9
:104BD8000024F4000400002014000020FFFEFFFF62
:104BE8000070004088130000012D1ED0E369002BDF
:104BF80000D191E04F4A916838220A40102A5ED0CD
:104C0800022B18D04B4A13684B490B401360FEF730
:104C1800D7FE0400474B1B689B0149D5FEF7D0FE21
:104C2800001B0228F6D903206CE0424AD36B4349A3
:104C38000B40D363DAE73F4A13683F490B401360E0
:104C4800FEF7BEFE05003B4B1B689B0106D5FEF731
:104C5800B7FE401B0228F6D9032053E0354AD36833
:104C680037491940236A606A0343A06A0002034374
:104C7800E06A0343206B03430B43D360116880232E
:104C88005B040B431360D16880235B050B43D3603F
:104C9800FEF796FE0400274B1B689B0106D4FEF71F
:104CA8008FFE001B0228F6D903202BE0002029E004
:104CB800204AD36823490B40D360002022E0012B0F
:104CC8002CD01C4BDA6803231340216A8B4227D16E
:104CD80070231340616A8B4224D1FE21C90111401F
:104CE800A36A1B0299421FD1F8239B031340E16A70
:104CF8008B421BD1520F5207236B9A4218D10020C6
:104D080000E0012002B070BD0120FBE70120F9E7B7
:104D18000120F7E70120F5E70020F3E70120F1E79C
:104D28000120EFE70120EDE70120EBE70120E9E7AB
:104D38000120E7E700100240FFFFFFFEFFFFFFEF43
:104D48008C80C11FFCFFFEEF10B52A4B9B683822F0
:104D58001A4207D1274B1A68D20A0723134026485C
:104D6800D84010BD234B9A6838231340082B3BD0FA
:104D7800204B9A6838231340102B0DD01D4B9A688E
:104D880038231340202B31D01A4B9A68382313400C
:104D9800182B26D00020E4E7164AD1680D3B0B40BB
:104DA800D2681209072111400131032B0FD0124894
:104DB800FBF7A2F90F4BDA68120A7F231340584316
:104DC8000C4BD968490F0131FBF796F9C9E70B4835
:104DD800FBF792F9074BDA68120A7F23134058430E
:104DE800EEE7FA20C001BCE70448BAE780200002D9
:104DF800B7E7C046001002400024F40000127A0011
:104E080070B504000D00002800D1AAE0574B1A68BD
:104E1800072313408B4221D323689A070ED55B07DB
:104E280005D5534A9168E023DB010B439360504A50
:104E3800936850490B40A1680B4393602368DB07D4
:104E480054D56368012B20D0022B3BD0002B3FD1D7
:104E5800474A126852051CD401206AE0434A136885
:104E680007218B432B431360FEF7AAFD06003F4B37
:104E78001A6807231340AB42CED0FEF7A1FD801B72
:104E88003D4A9042F3D9032053E0394A126892030D
:104E980069D537498A680720824313438B60FEF738
:104EA8008FFD0600324B9B6838221A406368DB008E
:104EB8009A421BD0FEF784FD801B2F4B9842F1D9F4
:104EC800032036E02A4A12689201E2D4012030E039
:104ED800032B05D0264AD26D9207DAD4012028E0A8
:104EE800234A126E9207D4D4012022E01F4B1A687D
:104EF80007231340AB421DD823685B0706D51C4A1D
:104F080093681E490B40E1680B439360FFF71CFF51
:104F1800174B9A68120A0F231340194A9B009A5894
:104F28001F231340D840174B1860174B1868FEF71B
:104F3800FBFC70BD0D4A136807218B432B4313609C
:104F4800FEF73EFD0600094B1A6807231340AB42E3
:104F5800D2D0FEF735FD801B074B9842F3D90320CA
:104F6800E7E70120E5E70120E3E7C046002002402B
:104F780000100240FFF0FFFF88130000FF8FFFFFC3
:104F8800A05D0008040000201400002030B5056A68
:104F9800036A01229343036242688369164C2340E3
:104FA8000C681C4302239D438B682B43134DA84276
:104FB80005D0134DA84202D0124DA84206D10825AB
:104FC800AB431D00CB682B430425AB430B4DA842D4
:104FD80005D00B4DA84202D00A4DA84205D10A4D72
:104FE8002A404D6915438A692A43426084614A68A8
:104FF8004263036230BDC0468CFFFEFF002C0140B7
:105008000044014000480140FFFCFFFF30B5046A3E
:10501800036A164A134003624268C369144D2B4061
:105028000D681D43134B1C408B681B022343124C15
:10503800A04206D0114CA0420AD0114CA0420FD178
:1050480006E0104C1C40CB681B0223430E4C234047
:105058000E4C22404C69240114438A6912012243F0
:105068004260C5614A68C263036230BDFFFEFFFF4C
:105078008CFFFEFFFFFDFFFF002C014000440140B4
:1050880000480140FFF7FFFFFFFBFFFFFFCFFFFFD7
:1050980030B5046A036A114A134003624568C3695C
:1050A8000F4A13400A6812021A430E4B1C408B68C1
:1050B8001B0323430C4CA04205D00C4CA04202D049
:1050C8000B4CA04204D10B4C2C404D69AD0125433B
:1050D8004560C2614A680264036230BDFFEFFFFFAA
:1050E800FF8CFFFEFFDFFFFF002C01400044014062
:1050F80000480140FFBFFFFF30B5046A036A114A48
:10510800134003624268436D0F4D2B400D681D43E9
:105118000E4B1C408B681B0423430D4CA04205D04A
:105128000C4CA04202D00C4CA04204D1054C1440B7
:105138004A6912022243426045654A6882650362F1
:1051480030BDC046FFFFFEFF8FFFFEFFFFFFFDFFE4
:10515800002C0140004401400048014030B5046A79
:10516800036A114A134003624568436D0F4A1340AE
:105178000A6812021A430E4B1C408B681B05234316
:105188000C4CA04205D00C4CA04202D00B4CA042C3
:1051980004D10B4C2C404D69AD0225434560426556
:1051A8004A68C265036230BDFFFFEFFFFF8FFFFE55
:1051B800FFFFDFFF002C0140004401400048014090
:1051C800FFFFFBFF30B5036A046A0125AC430462A4
:1051D8008469EF35AC43120122430A24A3430B43ED
:1051E8008261036230BD000030B5036A046A10258D
:1051F800AC4304628469054D2C4012032243A02469
:10520800A343090119438261016230BDFF0FFFFF0B
:105218008368034A13400B43072213438360704794
:105228008FFFCFFF3D23C35C012B22D13C330222E9
:10523800C2540268D36801210B43D3600368104A43
:10524800934208D00F4A934205D01A6801210A43B5
:105258001A6000200EE09A680B490A40062A0AD014
:1052680007398A4209D01A6801210A431A600020C6
:1052780000E0012070470020FCE70020FAE7C04664
:10528800002C0140000400400700010070477047EF
:10529800704770477047000070B505000368DE6806
:1052A8001C69A2070ED5B2070CD5032252421A6117
:1052B8000123037703689B699B0757D0FFF7E8FF33
:1052C80000232B77630712D5730710D52B680522A7
:1052D80052421A6102232B772B689A69C0239B00DC
:1052E8001A4249D02800FFF7D3FF00232B77230762
:1052F80010D533070ED52B68092252421A610423B0
:105308002B772B68DB699B073DD02800FFF7C0FF90
:1053180000232B77E30612D5F30610D52B6811224C
:1053280052421A6108232B772B68DA69C0239B0045
:105338001A422FD02800FFF7ABFF00232B77E30793
:1053480001D5F3072DD482239B011C4201D03306DB
:105358002FD4E30501D5330632D4630601D573068D
:1053680035D4A40601D5B60639D470BDFFF78FFF32
:105378002800FFF78EFFA3E72800FFF788FF280023
:10538800FFF787FFB1E72800FFF781FF2800FFF745
:1053980080FFBDE72800FFF77AFF2800FFF779FFB5
:1053A800CBE72B68022252421A612800FDF7A0FCC5
:1053B800C9E72B680E4A1A61280000F080FCC8E78C
:1053C8002B680C4A1A61280000F07AFCC5E72B68A4
:1053D800412252421A612800FFF75CFFC1E72B689F
:1053E800212252421A61280000F068FCBDE7C0463D
:1053F8007FDFFFFFFFFEFFFF03681D4A904202D0D8
:105408001C4A904203D1702293434A681343184AB6
:1054180090420BD0174A904208D0174A904205D0C4
:10542800164A904202D0164A904203D1154A1340B8
:10543800CA681343802293434A69134303608B6805
:10544800C3620B6883620A4B984205D00B4B9842A3
:1054580002D00B4B984201D10B69036301234361CE
:105468000269134203D00369012293430361704721
:10547800002C01400004004000200040004401408E
:1054880000480140FFFCFFFF70B5041E2AD03D23F1
:10549800C35C002B20D03D2502236355210001C9A0
:1054A800FFF7AAFF01234822A3540A3AA354013262
:1054B800A3540132A3540132A3540132A35401323C
:1054C800A3540132A3540132A3540132A35401322C
:1054D800A3546355002070BD3C330022C254FDF72D
:1054E800F7FFD8E70120F6E770B5041E2AD03D2360
:1054F800C35C002B20D03D2502236355210001C940
:10550800FFF77AFF01234822A3540A3AA354013231
:10551800A3540132A3540132A3540132A3540132DB
:10552800A3540132A3540132A3540132A3540132CB
:10553800A3546355002070BD3C330022C254FFF7CA
:10554800A5FED8E70120F6E770B5026A036A1024C1
:10555800A343036245688369144C23400C68240202
:105568001C4320239A438B681B011343104A904223
:1055780006D0104A90420BD00F4A904210D107E053
:10558800802293431E00CB681B013343403A934368
:105598000A4A15404A6992002A438D69AD001543AD
:1055A800456084614A688263036270BDFF8CFFFEB8
:1055B800002C01400044014000480140FFF3FFFF78
:1055C80070B504000D003C23C35C012B00D192E0B0
:1055D8003C230121C154142A00D987E09200474B8B
:1055E8009B589F4600682900FFF7D0FC2268936902
:1055F80008210B4393612268936904398B439361B3
:105608002268936929690B43936100206FE0006861
:105618002900FFF799FF2268916980231B010B433A
:1056280093612268936936490B40936121688B69BD
:105638002A69120213438B61002058E00068290090
:10564800FFF7E4FC2268D36908210B43D361226881
:10565800D36904398B43D3612268D36929690B4321
:10566800D361002043E000682900FFF711FD22689C
:10567800D16980231B010B43D3612268D369204978
:105688000B40D3612168CB692A6912021343CB61AD
:1056980000202CE000682900FFF72EFD2268536DDA
:1056A80008210B4353652268536D04398B435365B6
:1056B8002268536D29690B435365002017E0006881
:1056C8002900FFF74BFD2268516D80231B010B4316
:1056D80053652268536D0A490B40536521684B6D29
:1056E8002A69120213434B65002000E001203C2385
:1056F8000022E25470BD0220FCE7C0461C5E000890
:10570800FFFBFFFF30B58468034D2C401B02134399
:105718000B432343836030BDFF00FFFF10B5040037
:1057280008003C23E35C012B00D177E03C230122F5
:10573800E25401330132E2542268936838490B403D
:105748009360016860294FD029D8402957D00CD9D7
:10575800502922D14168C2682068FFF733FD2068CC
:105768005021FFF755FD002005E020290ED009D96A
:1057780030290BD001203D230122E254013B0022B5
:10578800E25410BD002901D0102904D12068FFF788
:105798003FFD0020EFE70120EDE70120EBE7802245
:1057A8005201914236D08022920191420DD18168F6
:1057B8004268C3682068FFF7A5FF226891688023C4
:1057C800DB010B4393600020D5E7702924D1816861
:1057D8004268C3682068FFF795FF226893687721BD
:1057E8000B4393600020C6E74168C2682068FFF752
:1057F800FBFC20686021FFF70BFD0020BBE7416838
:10580800C2682068FFF7DEFC20684021FFF700FD32
:105818000020B0E70020AEE70120ACE70220B0E7A7
:105828008800CEFF10B51F23194001248C40036A5D
:10583800A3430362036A8A401343036210BD000056
:1058480010B5040010292DD88B003F4AD3589F4625
:105858003E23C35C013B5A1E9341DBB2002B6DD142
:10586800102959D88B00394AD3589F463F23C35C27
:10587800013B5A1E9341DBB2F0E74023C35C013B76
:105888005A1E9341DBB2E9E74123C35C013B5A1E30
:105898009341DBB2E2E74223C35C013B5A1E9341CA
:1058A800DBB2DBE74323E35C013B5A1E9341DBB2E7
:1058B800D4E73E230222E25420680122FFF7B2FF18
:1058C8002368234A934205D0224A934202D0224AAF
:1058D800934204D1596C802212020A435A64236805
:1058E8001B4A93421CD01D4A934219D01A680121C1
:1058F8000A431A60002022E03F230222E254DBE739
:1059080040230222E254D7E741230222E254D3E79C
:1059180042230222E254CFE743230222E254CBE798
:105928009A680F490A40062A0AD007398A4209D0DC
:105938001A6801210A431A60002000E0012010BD06
:105948000020FCE70020FAE7705E0008B45E00085B
:10595800002C014000440140004801400004004080
:105968000700010070B504000D0000680022FFF771
:1059780059FF2368224A934219D0224A934216D0EB
:10598800214A934213D02368196A204A114207D149
:10599800196A1F4A114203D11A6801218A431A6001
:1059A800002D11D13E230122E254002070BD196A56
:1059B800164A1142E7D1196A154A1142E3D15A6CC5
:1059C80014490A405A64DEE7042D09D0082D0BD08B
:1059D8000C2D0DD0102D0FD043230122E254E4E703
:1059E8003F230122E254E0E740230122E254DCE7AE
:1059F80041230122E254D8E742230122E254D4E7AA
:105A0800002C0140004401400048014011110000F1
:105A180044040000FF7FFFFF10B50F231940042442
:105A28008C40036AA3430362036A8A4013430362F8
:105A380010BD000010B50400002923D14423C35C25
:105A4800013B5A1E9341DBB2002B52D1002932D1BF
:105A580044330222E25420680422FFF7DDFF226863
:105A6800516C80231B020B4353642368244A9342DE
:105A780031D0244A93422ED01A6801210A431A6071
:105A8800002037E0042908D008290DD04723C35C3B
:105A9800013B5A1E9341DBB2D6E74523C35C013B69
:105AA8005A1E9341DBB2CFE74623C35C013B5A1E23
:105AB8009341DBB2C8E7042905D0082907D047235A
:105AC8000222E254C7E745230222E254C3E74623F1
